:0400000007EF00F016
:0A0008005D8201ED0FF014EF0EF021
:10060000002020436F64652050617373656420206F
:1006100020002043617220426C61636B20426F783E
:100620002020002057726F6E672050617373776FC0
:100630007264200020456E74657220506173737778
:100640006F7264200020617474656D70742052654F
:100650006D61696E730020202054696D6520202033
:1006600020452020530054727920416761696E2033
:100670006C656674005365742074696D6520202074
:1006800020200056696577206C6F6720202020208D
:1006900000436C656172206C6F672020202000434E
:1006A00068616E67652050617373202000446F7726
:1006B0006E6C6F6164206C6F6720005761697420F5
:1006C000666F720056696577206C6F670020732033
:1006D00020004320004731004732004733004734B1
:0B06E00000474E004F4E004752000044
:1006EC001750800B246E175017242B6E16AE81EF0B
:1006FC0003F083EF03F084EF03F02B802B50D8B47E
:10070C008AEF03F08CEF03F0A1EF03F02B28D8A4B1
:10071C0092EF03F094EF03F09CEF03F0000E146ED5
:10072C00000E156E000E166E000E176E168E000E55
:10073C00176EA9EF03F0000E146E000E156E000E6E
:10074C00166E000E176E1B50800B241A1B501B24A8
:10075C002C6E1AAEB4EF03F0B6EF03F0B7EF03F064
:10076C002C802C50D8B4BDEF03F0BFEF03F0D4EFC6
:10077C0003F02C28D8A4C5EF03F0C7EF03F0CFEF9C
:10078C0003F0000E186E000E196E000E1A6E000E9D
:10079C001B6E1A8E000E1B6EDCEF03F0000E186E33
:1007AC00000E196E000E1A6E000E1B6E18501910EA
:1007BC001A101B10D8A4E5EF03F0E7EF03F0FFEFDE
:1007CC0003F0000E146E000E156E000E166E000E69
:1007DC00176E800E16127F0E17122450171214C0AB
:1007EC0014F015C015F016C016F017C017F042EF34
:1007FC0005F02B50D8A405EF04F007EF04F011EF2F
:10080C0004F0000E146E000E156E000E166E000E27
:10081C00176E42EF05F02C502BC01CF01D6A1C5EAD
:10082C00000E1D5A7F0E1C24256E000E1D20266EF8
:10083C0014C020F015C021F016C022F017C023F010
:10084C00000E146E000E156E000E166E000E176E56
:10085C00000E276E000E286E000E296E000E2A6EFA
:10086C00000E2C6E72EF04F02C50D8B440EF04F054
:10087C0042EF04F059EF04F0D8902036213622369E
:10088C002336D89014361536163617362AAE51EF55
:10089C0004F053EF04F054EF04F01480D890273692
:1008AC00283629362A361850205C195021581A50EF
:1008BC0022581B502358D8A066EF04F068EF04F0C0
:1008CC0071EF04F02A8C1850205E1950215A1A50DE
:1008DC00225A1B50235A2C2A190E2C6478EF04F040
:1008EC007AEF04F03AEF04F020502110221023107C
:1008FC00D8B483EF04F085EF04F09DEF04F027806B
:10090C009DEF04F0D89014361536163617362AAEED
:10091C0092EF04F094EF04F095EF04F01480D8906B
:10092C002736283629362A362506D8A0260616AEAE
:10093C00A2EF04F0A4EF04F088EF04F0000E2C6E8C
:10094C002AAEABEF04F0ADEF04F0D1EF04F0FF0EE4
:10095C0027141C6EFF0E28141D6EFF0E29141E6E1C
:10096C007F0E2A141F6E1C501D101E101F10D8B4A1
:10097C00C2EF04F0C4EF04F0C8EF04F0010E2C6ECB
:10098C00D1EF04F014A0CDEF04F0CFEF04F0D1EFD1
:10099C0004F0C4EF04F02C50D8B4D7EF04F0D9EF26
:1009AC0004F0FDEF04F0010E1426000E15221622A1
:1009BC00172217A0E4EF04F0E6EF04F0FDEF04F0CB
:1009CC0014C01CF015C01DF016C01EF017C01FF08F
:1009DC001F341F321E321D321C321CC014F01DC0BD
:1009EC0015F01EC016F01FC017F0254A262A26BE89
:1009FC0008EF05F0265008E12528D8A008EF05F0EF
:100A0C000AEF05F015EF05F0000E266E2568000EB6
:100A1C00146E000E156E000E166E000E176E26BEAE
:100A2C0022EF05F0265006E12504D8B020EF05F0A2
:100A3C0022EF05F030EF05F0000E266E000E256E4D
:100A4C00000E146E000E156E000E166E000E176E54
:100A5C00000E246E25C02BF02BA037EF05F039EFDC
:100A6C0005F03CEF05F0168E3DEF05F0169ED89084
:100A7C002B30176EF3EF03F01200136E000E000113
:100A8C008C6F47504810D8A44EEF05F050EF05F08E
:100A9C0058EF05F0340E036E060E046E800E056ED4
:100AAC00DEEC0DF054505510D8B45FEF05F061EF4B
:100ABC0005F0DBEF06F0040E506067EF05F069EF10
:100ACC0005F005EF06F00001A707000EA85BA95B77
:100ADC00AA5BA7290AE1A82908E1A92906E1AA2904
:100AEC00D8A47BEF05F07DEF05F091EF05F0100E2B
:100AFC00A76F270EA86F000EA96F000EAA6F000E2D
:100B0C00506E000E556E000E546E000E596E010E96
:100B1C00586EE8EF06F0000E7A6F000E796F13280E
:100B2C00D8B49BEF05F09DEF05F0C0EF05F00A0E71
:100B3C001318D8B4A4EF05F0A6EF05F0C0EF05F03C
:100B4C00100EA76F270EA86F000EA96F000EAA6FCC
:100B5C00880E5024D96EDA6A000EDA221350250F53
:100B6C00DF6E5050C50F0F6E2A0EFEEC0FF0502AA0
:100B7C000CEF06F049504A10D8A4C7EF05F0C9EFA6
:100B8C0005F00CEF06F04B4A4C2A400E4B1807E1CF
:100B9C00060E4C18D8A4D5EF05F0D7EF05F0DDEF15
:100BAC0005F0000E4C6E000E4B6E0CEF06F0200E96
:100BBC004B5C030E4C58D8B0E6EF05F0E8EF05F0AF
:100BCC00F0EF05F05050C50F0F6E5F0EFEEC0FF0FE
:100BDC000CEF06F0200E4B5C030E4C58D8A0F9EF2E
:100BEC0005F0FBEF05F003EF06F05050C50F0F6E4C
:100BFC00200EFEEC0FF00CEF06F00CEF06F0000EE2
:100C0C0000017A6F010E796F000E506E00017905AC
:100C1C007A11D8A414EF06F016EF06F0E8EF06F000
:100C2C00880E016E000E026EAB0E036E000E046E8B
:100C3C00A8EC0DF001500210D8A427EF06F029EF14
:100C4C0006F08EEF06F0000E486E010E476E000E99
:100C5C004A6E010E496EC30E126E500E116E1106C5
:100C6C00D8A01206112806E11228D8A440EF06F0ED
:100C7C0042EF06F035EF06F0010E036E060E046E21
:100C8C00800E056EDEEC0DF0120E036E060E046E79
:100C9C00C00E056EDEEC0DF0200E0001716FA10E82
:100CAC00726F070E736F000E746F7107000E725B1C
:100CBC00735B745B71290AE1722908E1732906E1FF
:100CCC007429D8A46CEF06F06EEF06F05BEF06F01B
:100CDC00000E016E010E86EC0FF0000E596E030E25
:100CEC00586E000E4C6E000E4B6E000E556E030EC1
:100CFC00546E000E486E000E476E000E00017A6FA7
:100D0C00000E796F000E4A6E000E496EE8EF06F089
:100D1C00100E0001A76F270EA86F000EA96F000E12
:100D2C00AA6F000E486E010E476E230E036E060E60
:100D3C00046E800E056EDEEC0DF0450E036E060E95
:100D4C00046EC10E056EDEEC0DF05406D8A05506EF
:100D5C00C00E0F6E5450300FFEEC0FF0400E000121
:100D6C00716F420E726F0F0E736F000E746F7107FE
:100D7C00000E725B735B745B71290AE1722908E1E6
:100D8C00732906E17429D8A4CEEF06F0D0EF06F053
:100D9C00BDEF06F0000E016E010E86EC0FF0000E9A
:100DAC00486E000E476EE8EF06F0000E486E010E1E
:100DBC00476E000E016E010E86EC0FF092EC0AF0FD
:100DCC0077EF06F012000E6E0E50D8B4F0EF06F06E
:100DDC00F2EF06F014EF07F009BEF9EF06F0F7EFAB
:100DEC0006F014EF07F006C00AF007C00BF008C0BD
:100DFC000CF009C00DF00A1E0B1E0C1E0D1E0A2A4B
:100E0C00000E0B220C220D220AC010F00BC011F0A8
:100E1C000CC012F00DC013F01CEF07F006C010F060
:100E2C0007C011F008C012F009C013F006500710EB
:100E3C0008100910D8A425EF07F027EF07F031EFC1
:100E4C0007F0000E066E000E076E000E086E000E08
:100E5C00096EC2EF07F0960E0F6E3BEF07F00F2AEC
:100E6C00D8901332123211321032000E10140A6E56
:100E7C00000E11140B6E000E12140C6EFE0E1314D9
:100E8C000D6E0A500B100C100D10D8A450EF07F07B
:100E9C0052EF07F035EF07F060EF07F00F2A010E65
:100EAC001026000E112212221322D8901332123265
:100EBC0011321032000E10140A6E000E11140B6E4B
:100ECC00000E12140C6EFF0E13140D6E0A500B1044
:100EDC000C100D10D8A475EF07F077EF07F054EF56
:100EEC0007F07FEF07F00F06D89010361136123648
:100EFC00133612BE84EF07F086EF07F08EEF07F083
:100F0C00020E0F608CEF07F08EEF07F079EF07F011
:100F1C000FB093EF07F095EF07F096EF07F0129EE6
:100F2C00D8900F320FC00AF00B6A0C6A0D6A0AC017
:100F3C000DF00C6A0B6A0A6A0A5010120B5011124F
:100F4C000C5012120D5013120E50D8B4B0EF07F013
:100F5C00B2EF07F0BAEF07F009BEB9EF07F0B7EF41
:100F6C0007F0BAEF07F0138E10C006F011C007F0AF
:100F7C0012C008F013C009F01200166E0001775170
:100F8C007811D8A4CCEF07F0CEEF07F0F7EF07F00D
:100F9C00810E0F6E2A0EFEEC0FF04F50020D9D0EBF
:100FAC00F324D96E000EF420DA6EDECF03F0DDCF21
:100FBC0004F0830E056EDEEC0DF04F50146E156AC6
:100FCC00D890143615369F0E1424D96E000E1520A9
:100FDC00DA6EDECF03F0DDCF04F0C30E056EDEEC6F
:100FEC000DF00C0E1618D8B4FEEF07F000EF08F059
:100FFC0009EF08F00B0E1618D8A407EF08F009EF4C
:10100C0008F05EEF08F0454A462A16C05AF0A10EC9
:10101C00455C0F0E4658D8A016EF08F018EF08F0F4
:10102C0037EF08F00C0E1618D8A41FEF08F021EFBC
:10103C0008F037EF08F0000E466E000E456E000EFD
:10104C00016E010E86EC0FF0000E596E010E586EFB
:10105C00000E0001786F000E776F7AEF08F07AEFD0
:10106C0008F0A10E455C0F0E4658D8A040EF08F0D2
:10107C0042EF08F07AEF08F00B0E1618D8A449EFDF
:10108C0008F04BEF08F07AEF08F04F50D8A451EF6E
:10109C0008F053EF08F035EF08F0000E016E010E6A
:1010AC0086EC0FF0000E596E040E586E7AEF08F0B5
:1010BC0045504610D8B465EF08F067EF08F07AEFAA
:1010CC0008F0A10E455C0F0E4658D8B070EF08F032
:1010DC0072EF08F07AEF08F0000E466E000E456EC7
:1010EC005A507BEC08F05A681200136E0C0E131851
:1010FC00D8A483EF08F085EF08F0C3EF08F0040ED6
:10110C004F608BEF08F08DEF08F0C3EF08F0000E86
:10111C00016E010E86EC0FF04F2A000E0001786F65
:10112C00010E776FC10E0F6E2A0EFEEC0FF04F50B2
:10113C00116E126AD890113612369B0E1124D96E8C
:10114C00000E1220DA6EDECF03F0DDCF04F0830E3A
:10115C00056EDEEC0DF04F50020D9D0EF324D96E92
:10116C00000EF420DA6EDECF03F0DDCF04F0C30EF8
:10117C00056EDEEC0DF008EF09F00B0E1318D8A479
:10118C00CAEF08F0CCEF08F008EF09F04F50D8B4D4
:10119C00D2EF08F0D4EF08F008EF09F0000E016E62
:1011AC00010E86EC0FF04F06000E0001786F010E59
:1011BC00776F810E0F6E2A0EFEEC0FF04F50020D62
:1011CC009D0EF324D96E000EF420DA6EDECF03F000
:1011DC00DDCF04F0830E056EDEEC0DF04F50116E7A
:1011EC00126AD890113612369F0E1124D96E000E49
:1011FC001220DA6EDECF03F0DDCF04F0C30E056EE5
:10120C00DEEC0DF01200E4EC0FF0A9EC0CF0AE0EDD
:10121C00186E470E196E250E1A6E410E1B6E040EBB
:10122C006BEC0FF001C006F002C007F0086A096A07
:10123C00000EE9EC06F006C014F007C015F008C06B
:10124C0016F009C017F076EC03F014C02DF015C0A1
:10125C002EF016C02FF017C030F094EC09F02DC012
:10126C003FF02EC040F058505910D8B440EF09F060
:10127C0042EF09F04BEF09F058045910D8A449EF8C
:10128C0009F04BEF09F051EF09F0010E33EC0DF0C2
:10129C00416E74EF09F0000E33EC0DF0416E74EFFB
:1012AC0009F0415043EC05F00DEF09F03FC014F08C
:1012BC0040C015F04150AAEC0EF00DEF09F0415072
:1012CC00C3EC07F00DEF09F0C40E036E060E046EAE
:1012DC00C00E056EDEEC0DF00DEF09F058C03DF0C0
:1012EC0059C03EF03E50000AD8B47FEF09F00DEF24
:1012FC0009F03D50000AD8B457EF09F0010AD8B4F0
:10130C005CEF09F0020AD8B465EF09F0070AD8B40B
:10131C006AEF09F00DEF09F007EF00F02F343034CD
:10132C00366E3650D8A49DEF09F09FEF09F0A9EF67
:10133C0009F0000E2D6E000E2E6E000E2F6E000E9C
:10134C00306E16EF0AF02DC031F02EC032F02FC0E7
:10135C0033F030C034F0200EB9EF09F0D8903432AD
:10136C00333232323132E82EB4EF09F03150356E6F
:10137C002F8EFF0E2D16FF0E2E16FF0E2F16000EA3
:10138C003016960E365E36BED0EF09F0CEEF09F071
:10139C00E6EF09F03650800A970FD8B0D8EF09F075
:1013AC00DAEF09F0DCEF09F09FEF09F0D89030325A
:1013BC002F322E322D32363EDCEF09F0FEEF09F0E3
:1013CC001F0E3664ECEF09F0EEEF09F0F6EF09F0C2
:1013DC009FEF09F0D8902D362E362F363036360644
:1013EC003650D8A4FCEF09F0FEEF09F0F0EF09F04D
:1013FC003550D8B404EF0AF006EF0AF00EEF0AF0FD
:10140C00301E2F1E2E1E2D6C000E2E222F2230224F
:10141C002DC02DF02EC02EF02FC02FF030C030F08C
:10142C001200136E1304D8A41EEF0AF020EF0AF07A
:10143C0026EF0AF0010E526E070E536E65EF0AF09E
:10144C00020E1318D8A42DEF0AF02FEF0AF049EF73
:10145C000AF0060E536035EF0AF037EF0AF03AEF58
:10146C000AF0532A65EF0AF0070E5318D8A441EF7F
:10147C000AF043EF0AF065EF0AF0010E536E000E0E
:10148C00526E65EF0AF0030E1318D8A450EF0AF051
:10149C0052EF0AF065EF0AF05250D8A458EF0AF058
:1014AC005AEF0AF065EF0AF0010E536460EF0AF090
:1014BC0062EF0AF065EF0AF0530665EF0AF0CB0E07
:1014CC000F6E5350020D8D0EF324D96E000EF420C6
:1014DC00DA6EDECFF6FFDDCFF7FF0800F550FEEC3D
:1014EC000FF0CC0E0F6E5350020D8D0EF324D96EEF
:1014FC00000EF420DA6EDECF11F0DDCF12F0010E0B
:10150C001126000E122211C0F6FF12C0F7FF0800C0
:10151C00F550FEEC0FF01200000E016E010E86EC81
:10152C000FF0000E00017C6F000E7B6FD58EE1EF8B
:10153C000AF0660E036E060E046E800E056EDEEC6F
:10154C000DF0BB0E036E060E046EC00E056EDEECC7
:10155C000DF0CD0E036E060E046ECB0E056EDEEC9A
:10156C000DF0CA0E0F6E56C009F057C00AF0000EEF
:10157C000C6E0A0E0B6EB6EC0BF00950300FFEEC35
:10158C000FF0C90E0F6E000E046E0A0E036E56C0DD
:10159C0001F057C002F0F5EC0AF001C009F002C0EE
:1015AC000AF0000E0C6E0A0E0B6EB6EC0BF0095026
:1015BC00300FFEEC0FF056505710D8A4E8EF0AF09D
:1015CC00EAEF0AF09FEF0AF0D59E000E576E0A0E56
:1015DC00566E000E016E010E86EC0FF01200000E1E
:1015EC00066E04BEFEEF0AF0FCEF0AF004EF0BF0FF
:1015FC00036C041ED8B0042A010E066E02BE0BEF5B
:10160C000BF009EF0BF011EF0BF0016C021ED8B0D0
:10161C00022A010E061A000E086E000E076E035009
:10162C000410D8B41CEF0BF01EEF0BF046EF0BF0D0
:10163C00010E056E26EF0BF0D89003360436052A02
:10164C0004AE2BEF0BF02DEF0BF022EF0BF0D8903C
:10165C00073608360350015C04500258D8A039EF05
:10166C000BF03BEF0BF040EF0BF00350015E04501E
:10167C00025A0780D89004320332052E2DEF0BF05E
:10168C000650D8B44CEF0BF04EEF0BF052EF0BF0C2
:10169C00076C081ED8B0082A07C001F008C002F079
:1016AC001200000E956E9450F80B946EF00EBA1654
:1016BC00000EBD6E9698070EB46E8290020E046EEC
:1016CC00040E036EBA0EE82EFED7032EFCD7042EA2
:1016DC00FAD700D0000E016E330E86EC0FF01B0E05
:1016EC00036E9E0EE82EFED7032EFCD700D0000E04
:1016FC00016E330E86EC0FF0A60EE82EFED700D04E
:10170C00000E016E330E86EC0FF000D000D000F00E
:10171C00000E016E020E86EC0FF0A60EE82EFED720
:10172C0000D0000E016E380E86EC0FF0A60EE82EDF
:10173C00FED700D0000E016E010E86EC0FF0040EE9
:10174C00036E3E0EE82EFED7032EFCD7000E016E64
:10175C000C0E86EC0FF0A60EE82EFED700D0120071
:10176C00000E0E6E0ABEBFEF0BF0BDEF0BF0C5EF17
:10177C000BF0096C0A1ED8B00A2A010E0E6E0CBEB4
:10178C00CCEF0BF0CAEF0BF0D0EF0BF00B6C0C1E88
:10179C00D8B00C2A0B500C10D8B4D7EF0BF0D9EFF3
:1017AC000BF0FDEF0BF0010E0D6EE1EF0BF0D8908E
:1017BC000B360C360D2A0CAEE6EF0BF0E8EF0BF007
:1017CC00DDEF0BF00B50095C0C500A58D8A0F1EF70
:1017DC000BF0F3EF0BF0F7EF0BF00B50095E0C5026
:1017EC000A5AD8900C320B320D2EE8EF0BF00E503B
:1017FC00D8B403EF0CF005EF0CF009EF0CF0096C0A
:10180C000A1ED8B00A2A09C009F00AC00AF0120050
:10181C00AE0E186E470E196E250E1A6E410E1B6E0B
:10182C00040E6BEC0FF001C006F002C007F0086A62
:10183C00096A000EE9EC06F006C014F007C015F0BA
:10184C0008C016F009C017F076EC03F014C02DF0A8
:10185C0015C02EF016C02FF017C030F094EC09F024
:10186C002DC037F02EC038F0000E046E0A0E036E39
:10187C0037C001F038C002F06EEC0DF001C008F07A
:10188C0002C009F0000E0B6E0A0E0A6E47EC0EF049
:10189C000850300F00016E6F37C008F038C009F0E7
:1018AC00000E0B6E0A0E0A6E47EC0EF00850300F4D
:1018BC0000016F6F1200819A818C818E81B269EF69
:1018CC000CF06BEF0CF06EEF0CF0010EA8EF0CF0BF
:1018DC0081B873EF0CF075EF0CF078EF0CF00A0E8A
:1018EC00A8EF0CF0818A819C818E81B280EF0CF084
:1018FC0082EF0CF085EF0CF0020EA8EF0CF081B823
:10190C008AEF0CF08CEF0CF08FEF0CF00B0EA8EFB5
:10191C000CF0818A818C819E819E81B298EF0CF0B3
:10192C009AEF0CF09DEF0CF0030EA8EF0CF081B8C1
:10193C00A2EF0CF0A4EF0CF0A7EF0CF00C0EA8EF3C
:10194C000CF0FF0E1200000E3A6E000E396E600E97
:10195C003924D96E000E3A20DA6E200EDF6E394A29
:10196C003A2A3ABEC3EF0CF03A5009E1100E395C3A
:10197C00D8A0C3EF0CF0C5EF0CF0ADEF0CF0000EDF
:10198C000001706FF1EC0CF0000E3C6E000E3B6E23
:10199C007F0E3B24D96E000E3C20DA6E620E3B2487
:1019AC00E16E000E3C20E26EDFCFE7FF3B4A3C2AA3
:1019BC003CBEEAEF0CF03C5009E1080E3B5CD8A0B1
:1019CC00EAEF0CF0ECEF0CF0CEEF0CF00EEC0CF0B0
:1019DC0079EC0EF01200020E9FEC0FF0426E010E2D
:1019EC009FEC0FF0436E000E9FEC0FF0446E42AC78
:1019FC0002EF0DF004EF0DF010EF0DF042380F0B6D
:101A0C00010B300F00017F6F42500F0B300F806FB6
:101A1C001AEF0DF042380F0B030B300F00017F6FE4
:101A2C0042500F0B300F806F3A0E816F43380F0B03
:101A3C000F0B300F826F43500F0B300F836F3A0E2A
:101A4C00846F44380F0B0F0B300F856F44500F0B06
:101A5C00300F866F000E876F1200016E0150D8A4F4
:101A6C003AEF0DF03CEF0DF040EF0DF061EC0CF0A7
:101A7C006DEF0DF00104D8A446EF0DF048EF0DF01A
:101A8C006CEF0DF061EC0CF0516E5128D8B451EFA5
:101A9C000DF053EF0DF060EF0DF05C50D8B459EF32
:101AAC000DF05BEF0DF060EF0DF0000E5C6E515021
:101ABC006DEF0DF05128D8A466EF0DF068EF0DF026
:101ACC006CEF0DF0010E5C6E6CEF0DF0FF0E120062
:101ADC00000E066E000E056E03500410D8B479EF9C
:101AEC000DF07BEF0DF0A3EF0DF0010E076E83EF01
:101AFC000DF0D89003360436072A04AE88EF0DF0AB
:101B0C008AEF0DF07FEF0DF0D890053606360350B6
:101B1C00015C04500258D8A096EF0DF098EF0DF030
:101B2C009DEF0DF00350015E0450025A0580D890D1
:101B3C0004320332072E8AEF0DF005C001F006C007
:101B4C0002F01200000E086E000E076ECBEF0DF0C7
:101B5C0007500324D96E08500420DA6E0750012474
:101B6C00E16E08500220E26EDE50E618D8B4C1EFE8
:101B7C000DF0C3EF0DF0C9EF0DF0000E026E010E6B
:101B8C00016EDDEF0DF0074A082A07500124D96ECB
:101B9C0008500220DA6EDF50D8A4D7EF0DF0D9EF41
:101BAC000DF0AEEF0DF0000E026E000E016E120085
:101BBC00000E016E055086EC0FF0FBEF0DF0010EE0
:101BCC00016E03C0F6FF04C0F7FFF86A050EF76458
:101BDC0003D00800F55005D0F6CFE9FFF7CFEAFFA8
:101BEC00EF5086EC0FF0034A042A03C0F6FF04C042
:101BFC00F7FFF86A050EF76403D00800F55005D01E
:101C0C00F6CFE9FFF7CFEAFFEF500009D8A411EFA8
:101C1C000EF013EF0EF0E5EF0DF01200680EF66EFD
:101C2C001F0EF76E000EF86E00EE8DF010EE23F026
:101C3C000900F5CFEEFFE550E150FAE17E0EF66EAD
:101C4C00200EF76E000EF86E00EE54F010EE09F058
:101C5C000900F5CFEEFFE550E150FAE100EE60F03F
:101C6C002D0EEE6AE806FDE100EE42F0120EEE6A71
:101C7C00E806FDE15D905D92000EF86E000109EF43
:101C8C0009F00A500B10D8B44EEF0EF050EF0EF0D6
:101C9C0074EF0EF0010E0C6E58EF0EF0D8900A3661
:101CAC000B360C2A0BAE5DEF0EF05FEF0EF054EF1F
:101CBC000EF00A50085C0B500958D8A068EF0EF0D3
:101CCC006AEF0EF06EEF0EF00A50085E0B50095AD8
:101CDC00D8900B320A320C2E5FEF0EF008C008F0D1
:101CEC0009C009F012005B2A0A0E5B18D8A481EF18
:101CFC000EF083EF0EF085EF0EF0000E5B6E5B5076
:101D0C00100DF3CF06F0000E086E000E076E600E7D
:101D1C000724D96E000E0820DA6EDF50026E0650D2
:101D2C004BEC0FF0062A074A082A08BEA7EF0EF064
:101D3C00085009E1100E075CD8A0A7EF0EF0A9EF30
:101D4C000EF08DEF0EF01200166E560E036E060E90
:101D5C00046E800E056EDEEC0DF08F0E0F6E700EA5
:101D6C00FEEC0FF00A0E1618D8A4BFEF0EF0C1EF60
:101D7C000EF0CCEF0EF0000E596E000E586E000EE9
:101D8C00016E010E86EC0FF0D7EF0EF03AEC10F06E
:101D9C00165017EC0AF014C011F015C012F0D8EC64
:101DAC000EF01200CE0E0F6E000E046E0A0E036EB5
:101DBC0011C001F012C002F06EEC0DF00150096E72
:101DCC000A6A000E0C6E0A0E0B6EB6EC0BF0095084
:101DDC00300FFEEC0FF0CF0E0F6E11C009F00A6A37
:101DEC00000E0C6E0A0E0B6EB6EC0BF00950300F99
:101DFC00FEEC0FF012000600F2A407EF0FF009EF53
:101E0C000FF025EF0FF0080ED624D66E000ED7205B
:101E1C00D76E4D4A4E2A200E4D1807E14E0E4E1825
:101E2C00D8A41BEF0FF01DEF0FF024EF0FF0000EF6
:101E3C004E6E000E4D6E5606D8A05706F2945D926B
:101E4C001100000E9FEC0FF0046E04508009026E1E
:101E5C00000EC6EC0FF0020E9FEC0FF0046E045057
:101E6C004009026E020EC6EC0FF0930E026E070EC6
:101E7C00C6EC0FF0000E9FEC0FF0046E04507F0BBD
:101E8C00026E000EC6EC0FF01200056E48EC10F05E
:101E9C00A00E2EEC10F005502EEC10F002502EEC93
:101EAC0010F044EC10F00B0E046EB80E036E03062B
:101EBC00D8A00406032806E10428D8A468EF0FF084
:101ECC006AEF0FF05DEF0FF01200056E05C003F026
:101EDC00D8900336D8900336C250C30B0310C26E91
:101EEC00C282C2B27CEF0FF07EEF0FF077EF0FF0F3
:101EFC00C450030B036EC350016E03C002F01200FA
:101F0C00026E01B002D0829201D0828202C083FFA5
:101F1C0082848294958E828082928284829483BE03
:101F2C009AEF0FF09CEF0FF093EF0FF08290959ECD
:101F3C001200026E48EC10F0D00E2EEC10F0025095
:101F4C002EEC10F04CEC10F0D10E2EEC10F034EC1A
:101F5C0010F0036E44EC10F003501200E406E1069E
:101F6C00D506D806DB06DE06E706D2068306AD06E6
:0F1F7C00910675069F06102700003131303000A6
:101F8C00036E48EC10F0D00E2EEC10F003502EEC3B
:101F9C0010F002502EEC10F044EC10F01200C28045
:101FAC00C19AC198C186C194C182C190C08AC0989F
:101FBC00C096C094C082C090C08E120027EC10F066
:101FCC0057EC0BF0D5EC0FF0F1EC0FF00AEC10F035
:101FDC0027EC0FF01200F28EF28CF28AD59EF2945E
:101FEC00D58CD59AD586000ED76E060ED66E1200FD
:101FFC00106E000E016E0F5086EC0FF0010E016E8C
:10200C00105086EC0FF0120094869488280EC66E41
:10201C00310EC86EC79CC78E9E96A19612009EA6C6
:10202C001AEF10F01CEF10F015EF10F09E96120046
:10203C007F0E036E000E046EC20E056EDEEC0DF00C
:10204C001200000E816E93501E0B936EF19E1200C7
:10205C00016E01C0C9FF15EC10F0120050EC10F02D
:10206C0054EC10F0C9501200F1EC0CF01EEC10F016
:0B207C00120003000A000100FFFF013A
:10208800C58415EC10F01200C58015EC10F0120094
:10209800C58215EC10F01200C58615EC10F0120080
:0620A800C58AC588120084
:020000040030CA
:0E000000FF071F1FFF8285FF0FC00FE00F409C
:00000001FF
