:0400000007EF00F016
:100008005C8239ED0FF0DDEF0DF01750800B246E98
:10001800175017242B6E16AE14EF00F016EF00F0F1
:1000280017EF00F02B802B50D8B41DEF00F01FEF16
:1000380000F034EF00F02B28D8A425EF00F027EFCC
:1000480000F02FEF00F0000E146E000E156E000E7B
:10005800166E000E176E168E000E176E3CEF00F02F
:10006800000E146E000E156E000E166E000E176E42
:100078001B50800B241A1B501B242C6E1AAE47EF02
:1000880000F049EF00F04AEF00F02C802C50D8B473
:1000980050EF00F052EF00F067EF00F02C28D8A4E2
:1000A80058EF00F05AEF00F062EF00F0000E186E03
:1000B800000E196E000E1A6E000E1B6E1A8E000EC0
:1000C8001B6E6FEF00F0000E186E000E196E000E1A
:1000D8001A6E000E1B6E185019101A101B10D8A497
:1000E80078EF00F07AEF00F092EF00F0000E146E57
:1000F800000E156E000E166E000E176E800E16128C
:100108007F0E17122450171214C014F015C015F0E2
:1001180016C016F017C017F0D5EF01F02B50D8A471
:1001280098EF00F09AEF00F0A4EF00F0000E146EC4
:10013800000E156E000E166E000E176ED5EF01F04C
:100148002C502BC01CF01D6A1C5E000E1D5A7F0E21
:100158001C24256E000E1D20266E14C020F015C02C
:1001680021F016C022F017C023F0000E146E000E06
:10017800156E000E166E000E176E000E276E000E1E
:10018800286E000E296E000E2A6E000E2C6E05EFEA
:1001980001F02C50D8B4D3EF00F0D5EF00F0ECEF1D
:1001A80000F0D8902036213622362336D8901436DF
:1001B8001536163617362AAEE4EF00F0E6EF00F0F3
:1001C800E7EF00F01480D8902736283629362A36EB
:1001D8001850205C195021581A5022581B50235887
:1001E800D8A0F9EF00F0FBEF00F004EF01F02A8C43
:1001F8001850205E1950215A1A50225A1B50235A5F
:100208002C2A190E2C640BEF01F00DEF01F0CDEF45
:1002180000F02050211022102310D8B416EF01F05E
:1002280018EF01F030EF01F0278030EF01F0D8909F
:1002380014361536163617362AAE25EF01F027EF95
:1002480001F028EF01F01480D89027362836293697
:100258002A362506D8A0260616AE35EF01F037EF68
:1002680001F01BEF01F0000E2C6E2AAE3EEF01F0FC
:1002780040EF01F064EF01F0FF0E27141C6EFF0E33
:1002880028141D6EFF0E29141E6E7F0E2A141F6E71
:100298001C501D101E101F10D8B455EF01F057EF59
:1002A80001F05BEF01F0010E2C6E64EF01F014A079
:1002B80060EF01F062EF01F064EF01F057EF01F039
:1002C8002C50D8B46AEF01F06CEF01F090EF01F018
:1002D800010E1426000E15221622172217A077EFFA
:1002E80001F079EF01F090EF01F014C01CF015C097
:1002F8001DF016C01EF017C01FF01F341F321E322B
:100308001D321C321CC014F01DC015F01EC016F0A2
:100318001FC017F0254A262A26BE9BEF01F026505B
:1003280008E12528D8A09BEF01F09DEF01F0A8EF88
:1003380001F0000E266E2568000E146E000E156E74
:10034800000E166E000E176E26BEB5EF01F0265091
:1003580006E12504D8B0B3EF01F0B5EF01F0C3EF23
:1003680001F0000E266E000E256E000E146E000EB3
:10037800156E000E166E000E176E000E246E25C048
:100388002BF02BA0CAEF01F0CCEF01F0CFEF01F07A
:10039800168ED0EF01F0169ED8902B30176E86EF90
:1003A80000F01200136E000E0001AA6F89518A1125
:1003B800D8A4E1EF01F0E3EF01F0EBEF01F0060E56
:1003C800036E2F0E046E800E056E4CEC0EF00001CD
:1003D800CE51CF11D8B4F3EF01F0F5EF01F070EF83
:1003E80003F0040E4E60FBEF01F0FDEF01F098EF13
:1003F80002F0CA07000ECB5BCC5BCD5BCA290AE1D1
:10040800CB2908E1CC2906E1CD29D8A40EEF02F0CA
:1004180010EF02F024EF02F0100ECA6F270ECB6F18
:10042800000ECC6F000ECD6F000E4E6E000ECF6F1B
:10043800000ECE6F000E566E010E556E7DEF03F066
:10044800000E886F000E876F1328D8B42EEF02F0C5
:1004580030EF02F053EF02F00A0E1318D8B437EF5A
:1004680002F039EF02F053EF02F0100ECA6F270EB8
:10047800CB6F000ECC6F000ECD6FA60E4E24D96E3A
:10048800DA6A000EDA221350250FDF6E4E50C50FC0
:100498000F6E2A0E83EC10F04E2A9EEF02F08B515D
:1004A8008C11D8A45AEF02F05CEF02F09EEF02F034
:1004B800484A492A400E481807E1060E4918D8A4A8
:1004C80068EF02F06AEF02F070EF02F0000E496E7A
:1004D800000E486E9EEF02F0200E485C030E49584D
:1004E800D8B079EF02F07BEF02F083EF02F04E50C4
:1004F800C50F0F6E5F0E83EC10F09EEF02F0200E1A
:10050800485C030E4958D8A08CEF02F08EEF02F039
:1005180096EF02F04E50C50F0F6E200E83EC10F0D0
:100528009EEF02F09EEF02F0000E886F010E876FBB
:10053800000E4E6E000187058811D8A4A6EF02F0C0
:10054800A8EF02F07DEF03F0A60E016E000E026E1A
:10055800AB0E036E000E046E16EC0EF00150021086
:10056800D8A4B9EF02F0BBEF02F021EF03F0000EC0
:1005780000018A6F010E896F000E8C6F010E8B6F60
:10058800C30E126E500E116E1106D8A01206112855
:1005980006E11228D8A4D3EF02F0D5EF02F0C8EF95
:1005A80002F0B10E036E2E0E046E800E056E4CEC3A
:1005B8000EF0D30E036E2E0E046EC00E056E4CECBC
:1005C8000EF0200E00017A6FA10E7B6F070E7C6F74
:1005D800000E7D6F7A07000E7B5B7C5B7D5B7A2962
:1005E8000AE17B2908E17C2906E17D29D8A4FFEFEF
:1005F80002F001EF03F0EEEF02F0000E016E010EC3
:10060800BFEC0FF0000E566E030E556E000E496ECD
:10061800000E486E000E0001CF6F030ECE6F000E65
:100628008A6F000E896F000E886F000E876F000EAC
:100638008C6F000E8B6F7DEF03F0100E0001CA6FF8
:10064800270ECB6F000ECC6F000ECD6F000E8A6F99
:10065800010E896FF50E036E2E0E046E800E056E68
:100668004CEC0EF0170E036E2F0E046EC10E056EC5
:100678004CEC0EF00001CE07D8A0CF07C00E0F6ECD
:10068800CE51300F83EC10F0400E00017A6F420E0D
:100698007B6F0F0E7C6F000E7D6F7A07000E7B5B01
:1006A8007C5B7D5B7A290AE17B2908E17C2906E1EC
:1006B8007D29D8A462EF03F064EF03F051EF03F053
:1006C800000E016E010EBFEC0FF0000E00018A6FE4
:1006D800000E896F7DEF03F0000E8A6F010E896F9F
:1006E800000E016E010EBFEC0FF060EC0AF00AEF8D
:1006F80003F01200156E000E0001A06F000EA56F2A
:100708008D0E036E2E0E046E800E056E4CEC0EF0F0
:10071800100E096E270E0A6E000E0B6E000E0C6E80
:100728000906000E0A5A0B5A0C5A09280AE10A2827
:1007380008E10B2806E10C28D8A4A5EF03F0A7EFE1
:1007480003F094EF03F04C50D8A4ADEF03F0AFEFF3
:1007580003F017EF04F0670E036E2F0E046E800E81
:10076800056E4CEC0EF0040E4D60BDEF03F0BFEFCC
:1007780003F0D3EF03F01528D8B4C5EF03F0C7EFA3
:1007880003F017EF04F0A10E4D24D96EDA6A000EBB
:10079800DA221550250FDF6E4D2A17EF04F0000EF0
:1007A800016E010EBFEC0FF0000E4D6EAB0E016E28
:1007B800000E026EA10E036E000E046E16EC0EF013
:1007C80001500210D8A4EBEF03F0EDEF03F017EFA0
:1007D80004F0280E036E2F0E046E800E056E4CEC8E
:1007E8000EF0100E0D6E270E0E6E000E0F6E000E20
:1007F800106E0D06000E0E5A0F5A105A0D280AE1F7
:100808000E2808E10F2806E11028D8A40EEF04F0FE
:1008180010EF04F0FDEF03F0000E016E010EBFECC7
:100828000FF0010E4C6E4C04D8A41DEF04F01FEF1E
:1008380004F04CEF04F0490E036E2F0E046E800E88
:10084800056E4CEC0EF0040E4D602DEF04F02FEF0A
:1008580004F043EF04F01528D8B435EF04F037EF6F
:1008680004F04CEF04F09C0E4D24D96EDA6A000EA9
:10087800DA221550250FDF6E4D2A4CEF04F0000EDA
:10088800016E010EBFEC0FF0000E4D6E020E4C6EA5
:10089800020E4C18D8A453EF04F055EF04F0C7EF3C
:1008A80004F0580E036E2F0E046E800E056E4CEC8D
:1008B8000EF0040E4D6063EF04F065EF04F079EF7D
:1008C80004F01528D8B46BEF04F06DEF04F0C7EF0F
:1008D80004F09C0E4D24D96EDA6A000EDA22155007
:1008E800250FDF6E4D2AC7EF04F0000E016E010ED2
:1008F800BFEC0FF0000E4D6E9C0E016E000E026EE6
:10090800A10E036E000E046E16EC0EF001500210DC
:10091800D8A491EF04F093EF04F0C7EF04F0C20EEF
:10092800036E2E0E046E800E056E4CEC0EF0E40E77
:10093800036E2E0E046EC00E056E4CEC0EF0100EFB
:10094800116E270E126E000E136E000E146E110635
:10095800000E125A135A145A11280AE1122808E1F3
:10096800132806E11428D8A4BCEF04F0BEEF04F065
:10097800ABEF04F0000E016E010EBFEC0FF0000E9D
:10098800566E010E556E1200176E000185518611C4
:10099800D8A4D1EF04F0D3EF04F0FCEF04F0810EFB
:1009A8000F6E2A0E83EC10F04B50020DC00EF3248C
:1009B800D96E000EF420DA6EDECF03F0DDCF04F03E
:1009C800830E056E4CEC0EF04B50146E156AD890E1
:1009D80014361536C20E1424D96E000E1520DA6EA0
:1009E800DECF03F0DDCF04F0C30E056E4CEC0EF045
:1009F8000C0E1718D8B403EF05F005EF05F00EEF4D
:100A080005F00B0E1718D8A40CEF05F00EEF05F043
:100A1800EAEF05F0444A452A17C058F0A10E445C95
:100A28000F0E4558D8A01BEF05F01DEF05F03AEF63
:100A380005F00C0E1718D8A424EF05F026EF05F0E2
:100A48003AEF05F0000E456E000E446E000E016E82
:100A5800010EBFEC0FF0000E566E010E556E000E23
:100A68000001866F000E856F06EF06F0A10E445C4C
:100A78000F0E4558D8A043EF05F045EF05F006EFF7
:100A880006F00B0E1718D8A44CEF05F04EEF05F042
:100A980006EF06F04B50D8B454EF05F056EF05F0CA
:100AA8005EEF05F04B28D8A45CEF05F05EEF05F08B
:100AB80069EF05F0000E016E010EBFEC0FF0000E9D
:100AC800566E040E556E06EF06F04B04D8A46FEF71
:100AD80005F071EF05F07CEF05F0000E016E010ED8
:100AE800BFEC0FF0000E566E050E556E06EF06F0C1
:100AF800020E4B18D8A483EF05F085EF05F0BBEF85
:100B080005F0000E016E010EBFEC0FF0CB0E036E68
:100B18002F0E046E800E056E4CEC0EF0000E166E55
:100B2800B0EF05F0162A030E16649DEF05F09FEF4F
:100B380005F0A7EF05F01650BD0F0F6E2E0E83ECD3
:100B480010F0ADEF05F01650800F0F6E2E0E83ECEF
:100B580010F04606D8A0470646504710D8A4B7EF6D
:100B680005F0B9EF05F096EF05F006EF06F0600E18
:100B7800146E000E156E030E14181510D8A4C7EFC6
:100B880005F0C9EF05F0D4EF05F0000E016E010E77
:100B9800BFEC0FF0000E566E060E556E06EF06F00F
:100BA800040E4B18D8A4DBEF05F0DDEF05F0E8EFF5
:100BB80005F0000E016E010EBFEC0FF0000E566E30
:100BC800020E556E06EF06F006EF06F0445045108B
:100BD800D8B4F1EF05F0F3EF05F006EF06F0A10E3B
:100BE800445C0F0E4558D8B0FCEF05F0FEEF05F059
:100BF80006EF06F0000E456E000E446E585055EC98
:100C080008F05868120069EC10F0300E026E000E01
:100C180084EC0FF0300E026E010E84EC0FF0300EF3
:100C2800026E020E84EC0FF0300E026E030E84EC9E
:100C38000FF0000E0001AF6F000EF0EC0FF0000196
:100C4800AB6F010EF0EC0FF00001AC6F020EF0EC90
:100C58000FF00001AD6F030EF0EC0FF00001AE6F66
:100C6800EEEC09F0AE0E186E470E196E250E1A6ED0
:100C7800410E1B6E040EA4EC0FF001C006F002C07A
:100C880007F0086A096A000EE1EC06F006C014F0E5
:100C980007C015F008C016F009C017F009EC00F0FD
:100CA80014C02DF015C02EF016C02FF017C030F06C
:100CB8006BEC09F02DC041F02EC042F05550561093
:100CC800D8B469EF06F06BEF06F075EF06F0020E88
:100CD80055185610D8A473EF06F075EF06F07BEFA1
:100CE80006F0010E68EC0DF0436EB5EF06F0000E4D
:100CF80068EC0DF0436E4350BBEC07F0B5EF06F01F
:100D08004350D6EC01F036EF06F041C013F042C074
:100D180014F04350E5EC0EF036EF06F04350C8EC03
:100D280004F036EF06F04350E3EC08F036EF06F037
:100D380043507EEC03F036EF06F04350C3EC0AF064
:100D480036EF06F04350C4EC10F036EF06F09F0E75
:100D5800036E2E0E046E800E056E4CEC0EF036EF10
:100D680006F055C03FF056C040F04050000AD8B4D5
:100D7800C0EF06F0ABEF06F03F50000AD8B484EF9E
:100D880006F0010AD8B489EF06F0030AD8B49CEF3C
:100D980006F0010AD8B492EF06F0070AD8B497EF24
:100DA80006F0010AD8B4A1EF06F0030AD8B4A6EFFA
:100DB80006F0ABEF06F007EF00F00E6E0E50D8B459
:100DC800E8EF06F0EAEF06F00CEF07F009BEF1EFE6
:100DD80006F0EFEF06F00CEF07F006C00AF007C0C8
:100DE8000BF008C00CF009C00DF00A1E0B1E0C1EFB
:100DF8000D1E0A2A000E0B220C220D220AC010F02A
:100E08000BC011F00CC012F00DC013F014EF07F076
:100E180006C010F007C011F008C012F009C013F0A6
:100E28000650071008100910D8A41DEF07F01FEF8F
:100E380007F029EF07F0000E066E000E076E000E91
:100E4800086E000E096EBAEF07F0960E0F6E33EFBC
:100E580007F00F2AD8901332123211321032000ED6
:100E680010140A6E000E11140B6E000E12140C6E84
:100E7800FE0E13140D6E0A500B100C100D10D8A492
:100E880048EF07F04AEF07F02DEF07F058EF07F0AB
:100E98000F2A010E1026000E112212221322D890BA
:100EA8001332123211321032000E10140A6E000E74
:100EB80011140B6E000E12140C6EFF0E13140D6E2F
:100EC8000A500B100C100D10D8A46DEF07F06FEF3F
:100ED80007F04CEF07F077EF07F00F06D8901036C1
:100EE80011361236133612BE7CEF07F07EEF07F08C
:100EF80086EF07F0020E0F6084EF07F086EF07F029
:100F080071EF07F00FB08BEF07F08DEF07F08EEF62
:100F180007F0129ED8900F320FC00AF00B6A0C6AC5
:100F28000D6A0AC00DF00C6A0B6A0A6A0A501012A0
:100F38000B5011120C5012120D5013120E50D8B43F
:100F4800A8EF07F0AAEF07F0B2EF07F009BEB1EF7C
:100F580007F0AFEF07F0B2EF07F0138E10C006F0FE
:100F680011C007F012C008F013C009F01200016E9A
:100F78000104D8B4C2EF07F0C4EF07F0D6EF07F0CA
:100F8800020E0118D8B4CBEF07F0CDEF07F0D6EF7B
:100F980007F0030E0118D8A4D4EF07F0D6EF07F036
:100FA800FAEF07F0010E00017E27000E7F23802351
:100FB800812301C05BF081BFEEEF07F08151801102
:100FC8000BE1A10E7E5D0F0E7F59D8A0EEEF07F062
:100FD800F0EF07F054EF08F0000E7E6F000E7F6F01
:100FE800000E806F000E816F54EF08F000017E51F3
:100FF8007F1180118111D8B404EF08F006EF08F0D2
:1010080054EF08F05B04D8A40CEF08F00EEF08F0DA
:1010180014EF08F0010E506E070E516E53EF08F0F2
:10102800020E5B18D8A41BEF08F01DEF08F037EF8D
:1010380008F0060E516023EF08F025EF08F028EFBE
:1010480008F0512A53EF08F0070E5118D8A42FEFD3
:1010580008F031EF08F053EF08F0010E516E000E62
:10106800506E53EF08F0030E5B18D8A43EEF08F05B
:1010780040EF08F053EF08F05050D8A446EF08F0BE
:1010880048EF08F053EF08F0010E51644EEF08F0F6
:1010980050EF08F053EF08F0510653EF08F05B6883
:1010A8001200136E0C0E1318D8A45DEF08F05FEF52
:1010B80008F09DEF08F0040E4B6065EF08F067EF4D
:1010C80008F09DEF08F0000E016E010EBFEC0FF066
:1010D8004B2A000E0001866F010E856FC10E0F6E40
:1010E8002A0E83EC10F04B50116E126AD89011360C
:1010F8001236BE0E1124D96E000E1220DA6EDECF23
:1011080003F0DDCF04F0830E056E4CEC0EF04B506F
:10111800020DC00EF324D96E000EF420DA6EDECF75
:1011280003F0DDCF04F0C30E056E4CEC0EF0E2EFD9
:1011380008F00B0E1318D8A4A4EF08F0A6EF08F0D7
:10114800E2EF08F04B50D8B4ACEF08F0AEEF08F07F
:10115800E2EF08F0000E016E010EBFEC0FF04B0637
:10116800000E0001866F010E856F810E0F6E2A0E2C
:1011780083EC10F04B50020DC00EF324D96E000E14
:10118800F420DA6EDECF03F0DDCF04F0830E056EB7
:101198004CEC0EF04B50116E126AD8901136123684
:1011A800C20E1124D96E000E1220DA6EDECF03F0C3
:1011B800DDCF04F0C30E056E4CEC0EF012000A6E83
:1011C800000E0C6E000E0B6E4A50100DF350050FFA
:1011D800096E000E0E6E000E0D6E0BC001F00CC0F5
:1011E80002F0000E046E110E036E1AEC10F0000EE1
:1011F8000124076E010E0220086E0D500724D96ED7
:101208000E500820DA6E09500D24F0EC0FF0DF6E56
:101218000D4A0E2A0EBE1AEF09F00E5009E1100E03
:101228000D5CD8A01AEF09F01CEF09F0F1EF08F0F7
:101238000B4A0C2A0CBE2AEF09F00C5009E10A0EE1
:101248000B5CD8A02AEF09F02CEF09F0E8EF08F0C2
:101258000C0E0A18D8A433EF09F035EF09F040EF67
:1012680009F00A0E4A603BEF09F03DEF09F040EF44
:1012780009F04A2A52EF09F00B0E0A18D8A447EFD2
:1012880009F049EF09F052EF09F04A50D8B44FEF8E
:1012980009F051EF09F052EF09F04A064A50110DD2
:1012A800000EF324036E010EF420046E800E056E0A
:1012B8004CEC0EF04A50110D110EF324036E010E82
:1012C800F420046EC00E056E4CEC0EF012002F34A4
:1012D8003034366E3650D8A474EF09F076EF09F042
:1012E80080EF09F0000E2D6E000E2E6E000E2F6E90
:1012F800000E306EEDEF09F02DC031F02EC032F047
:101308002FC033F030C034F0200E90EF09F0D890A1
:101318003432333232323132E82E8BEF09F0315029
:10132800356E2F8EFF0E2D16FF0E2E16FF0E2F1662
:10133800000E3016960E365E36BEA7EF09F0A5EF02
:1013480009F0BDEF09F03650800A970FD8B0AFEF1B
:1013580009F0B1EF09F0B3EF09F076EF09F0D89092
:1013680030322F322E322D32363EB3EF09F0D5EF20
:1013780009F01F0E3664C3EF09F0C5EF09F0CDEF91
:1013880009F076EF09F0D8902D362E362F36303604
:1013980036063650D8A4D3EF09F0D5EF09F0C7EFD9
:1013A80009F03550D8B4DBEF09F0DDEF09F0E5EFCF
:1013B80009F0301E2F1E2E1E2D6C000E2E222F22FD
:1013C80030222DC02DF02EC02EF02FC02FF030C0AF
:1013D80030F01200000E3C6E000E3B6E600E3B2497
:1013E800D96E000E3C20DA6E200EDF6E3B4A3C2A96
:1013F8003CBE08EF0AF03C5009E1100E3B5CD8A057
:1014080008EF0AF00AEF0AF0F2EF09F0000E000107
:10141800706F25EC0DF0000E3E6E000E3D6E930EC3
:101428003D24D96E000E3E20DA6E620E3D24E16E38
:10143800000E3E20E26EDFCFE7FF3D4A3E2A3EBE69
:101448002FEF0AF03E5009E1080E3D5CD8A02FEFBF
:101458000AF031EF0AF013EF0AF03FEC0CF05150AC
:10146800020DB00EF324D96E000EF420DA6EDECF32
:10147800F6FFDDCFF7FF0800F5CF6BF05150020DF6
:10148800B00EF324D96E000EF420DA6EDECF39F0F8
:10149800DDCF3AF0010E3926000E3A2239C0F6FFA8
:1014A8003AC0F7FF0800F5CF6CF04650300F000146
:1014B800606F92EC0CF01200000E016E010EBFEC92
:1014C8000FF0000E00018E6F000E8D6FD58EAFEFFE
:1014D8000AF0760E036E2F0E046E800E056E4CEC2D
:1014E8000EF0D90E036E2F0E046EC00E056E4CEC76
:1014F8000EF0E20E036E2F0E046ECB0E056E4CEC52
:101508000EF0CA0E0F6E53C009F054C00AF0000E58
:101518000C6E0A0E0B6EE7EC0BF00950300F83ECE3
:1015280010F0C90E0F6E000E046E0A0E036E53C043
:1015380001F054C002F026EC0BF001C009F002C023
:101548000AF0000E0C6E0A0E0B6EE7EC0BF0095059
:10155800300F83EC10F053505410D8A4B6EF0AF0B3
:10156800B8EF0AF06DEF0AF0D59E000E546E0A0E21
:10157800536E000E016E010EBFEC0FF01200790ED3
:10158800036E2E0E046E800E056E4CEC0EF0000EEF
:101598000C6E000E0B6E000E0E6E000E0D6E0BC064
:1015A80001F00CC002F0000E046E110E036E1AEC6E
:1015B80010F0000E0124096E010E02200A6E0D5073
:1015C8000924D96E0E500A20DA6E57500D24F0EC1B
:1015D8000FF0DF6E0D4A0E2A0EBEFCEF0AF00E5019
:1015E80009E1100E0D5CD8A0FCEF0AF0FEEF0AF03E
:1015F800D3EF0AF00BC001F00CC002F0000E046E2D
:10160800110E036E1AEC10F0000E0124076E010E85
:101618000220086ED8EC0FF00A0E5BEC10F0100EEA
:1016280057260B4A0C2A0CBE23EF0BF00C5009E18D
:101638000A0E0B5CD8A023EF0BF025EF0BF0CFEFD1
:101648000AF01200000E066E04BE2FEF0BF02DEF0D
:101658000BF035EF0BF0036C041ED8B0042A010E12
:10166800066E02BE3CEF0BF03AEF0BF042EF0BF0C8
:10167800016C021ED8B0022A010E061A000E086E6E
:10168800000E076E03500410D8B44DEF0BF04FEF67
:101698000BF077EF0BF0010E056E57EF0BF0D890BB
:1016A80003360436052A04AE5CEF0BF05EEF0BF050
:1016B80053EF0BF0D890073608360350015C0450FE
:1016C8000258D8A06AEF0BF06CEF0BF071EF0BF03B
:1016D8000350015E0450025A0780D8900432033246
:1016E800052E5EEF0BF00650D8B47DEF0BF07FEFC0
:1016F8000BF083EF0BF0076C081ED8B0082A07C060
:1017080001F008C002F01200000E956E9450F80B1C
:10171800946EF00EBA16000EBD6E9698070EB46E53
:101728008290020E046E040E036EBA0EE82EFED7E7
:10173800032EFCD7042EFAD700D0000E016E330E0C
:10174800BFEC0FF01B0E036E9E0EE82EFED7032E85
:10175800FCD700D0000E016E330EBFEC0FF0A60EC2
:10176800E82EFED700D0000E016E330EBFEC0FF04E
:1017780000D000D000F0000E016E020EBFEC0FF09A
:10178800A60EE82EFED700D0000E016E380EBFEC74
:101798000FF0A60EE82EFED700D0000E016E010E47
:1017A800BFEC0FF0040E036E3E0EE82EFED7032E9C
:1017B800FCD7000E016E0C0EBFEC0FF0A60EE82E43
:1017C800FED700D01200000E0E6E0ABEF0EF0BF02E
:1017D800EEEF0BF0F6EF0BF0096C0A1ED8B00A2AF0
:1017E800010E0E6E0CBEFDEF0BF0FBEF0BF001EFE0
:1017F8000CF00B6C0C1ED8B00C2A0B500C10D8B483
:1018080008EF0CF00AEF0CF02EEF0CF0010E0D6E45
:1018180012EF0CF0D8900B360C360D2A0CAE17EFE1
:101828000CF019EF0CF00EEF0CF00B50095C0C509B
:101838000A58D8A022EF0CF024EF0CF028EF0CF097
:101848000B50095E0C500A5AD8900C320B320D2EF0
:1018580019EF0CF00E50D8B434EF0CF036EF0CF052
:101868003AEF0CF0096C0A1ED8B00A2A09C009F030
:101878000AC00AF01200AE0E186E470E196E250E39
:101888001A6E410E1B6E040EA4EC0FF001C006F098
:1018980002C007F0086A096A000EE1EC06F006C00B
:1018A80014F007C015F008C016F009C017F009ECCD
:1018B80000F014C02DF015C02EF016C02FF017C080
:1018C80030F06BEC09F02DC037F02EC038F0000E68
:1018D800046E0A0E036E37C001F038C002F0A3ECA4
:1018E8000DF001C008F002C009F0000E0B6E0A0EE0
:1018F8000A6E82EC0EF00850300F00016E6F37C090
:1019080008F038C009F0000E0B6E0A0E0A6E82EC61
:101918000EF00850300F00016F6F1200592A0A0E9E
:101928005918D8A49AEF0CF09CEF0CF09EEF0CF02D
:10193800000E596E5950100DF350050F066E090E22
:101948005964A9EF0CF0ABEF0CF0ADEF0CF0000E02
:10195800596E464A472A000E086E000E076E600E42
:101968000724D96E000E0820DA6EDF50026E06508A
:1019780084EC0FF0062A074A082A08BECDEF0CF0BF
:10198800085009E1100E075CD8A0CDEF0CF0CFEF9E
:101998000CF0B3EF0CF0475009E10B0E465CD8A0F1
:1019A800D8EF0CF0DAEF0CF0DCEF0CF0000E596E0B
:1019B8001200819A818C818E81B2E5EF0CF0E7EFFD
:1019C8000CF0EAEF0CF0010E24EF0DF081B8EFEF08
:1019D8000CF0F1EF0CF0F4EF0CF00A0E24EF0DF020
:1019E800818A819C818E81B2FCEF0CF0FEEF0CF0B5
:1019F80001EF0DF0020E24EF0DF081B806EF0DF0A7
:101A080008EF0DF00BEF0DF00B0E24EF0DF0818AAF
:101A1800818C819E819E81B214EF0DF016EF0DF03E
:101A280019EF0DF0030E24EF0DF081B81EEF0DF045
:101A380020EF0DF023EF0DF00C0E24EF0DF0FF0E4C
:101A48001200020E05EC10F00001826F010E05EC89
:101A580010F00001836F000E05EC10F00001846F98
:101A680082AD39EF0DF03BEF0DF046EF0DF0823906
:101A78000F0B010B300F936F82510F0B300F946FC8
:101A88004FEF0DF082390F0B030B300F936F82511C
:101A98000F0B300F946F3A0E956F83390F0B0F0BA6
:101AA800300F966F83510F0B300F976F3A0E986F68
:101AB80084390F0B0F0B300F996F84510F0B300FB8
:101AC8009A6F000E9B6F1200016E0150D8A46FEF41
:101AD8000DF071EF0DF075EF0DF0DDEC0CF0A2EFED
:101AE8000DF00104D8A47BEF0DF07DEF0DF0A1EF10
:101AF8000DF0DDEC0CF04F6E4F28D8B486EF0DF0EA
:101B080088EF0DF095EF0DF05A50D8B48EEF0DF028
:101B180090EF0DF095EF0DF0000E5A6E4F50A2EFBA
:101B28000DF04F28D8A49BEF0DF09DEF0DF0A1EF1D
:101B38000DF0010E5A6EA1EF0DF0FF0E1200000E0F
:101B4800066E000E056E03500410D8B4AEEF0DF00B
:101B5800B0EF0DF0D8EF0DF0010E076EB8EF0DF0F5
:101B6800D89003360436072A04AEBDEF0DF0BFEF58
:101B78000DF0B4EF0DF0D890053606360350015C31
:101B880004500258D8A0CBEF0DF0CDEF0DF0D2EFF6
:101B98000DF00350015E0450025A0580D8900432BB
:101BA8000332072EBFEF0DF005C001F006C002F0AA
:101BB80012005A0EF66E200EF76E000EF86E00EE4A
:101BC800B0F010EE20F00900F5CFEEFFE550E1503F
:101BD800FAE17E0EF66E210EF76E000EF86E00EE3C
:101BE80053F010EE09F00900F5CFEEFFE550E15093
:101BF800FAE101EE00F0AA0EEE6AE806FDE100EE59
:101C080060F0500EEE6AE806FDE100EE44F00F0EBB
:101C1800EE6AE806FDE15C905C92000EF86E000149
:101C280007EF06F0000E086E000E076E39EF0EF093
:101C380007500324D96E08500420DA6E0750012497
:101C4800E16E08500220E26EDE50E618D8B42FEF9D
:101C58000EF031EF0EF037EF0EF0000E026E010EAF
:101C6800016E4BEF0EF0074A082A07500124D96E7F
:101C780008500220DA6EDF50D8A445EF0EF047EF87
:101C88000EF01CEF0EF0000E026E000E016E120038
:101C9800000E016E0550BFEC0FF069EF0EF0010E5B
:101CA800016E03C0F6FF04C0F7FFF86A050EF7647B
:101CB80003D00800F55005D0F6CFE9FFF7CFEAFFCB
:101CC800EF50BFEC0FF0034A042A03C0F6FF04C02C
:101CD800F7FFF86A050EF76403D00800F55005D041
:101CE800F6CFE9FFF7CFEAFFEF500009D8A47FEF5E
:101CF8000EF081EF0EF053EF0EF012000A500B10A9
:101D0800D8B489EF0EF08BEF0EF0AFEF0EF0010EA6
:101D18000C6E93EF0EF0D8900A360B360C2A0BAEE9
:101D280098EF0EF09AEF0EF08FEF0EF00A50085C65
:101D38000B500958D8A0A3EF0EF0A5EF0EF0A9EFAD
:101D48000EF00A50085E0B50095AD8900B320A322E
:101D58000C2E9AEF0EF008C008F009C009F0120026
:101D680025EC0DF0A3EC10F0CB0E0F6E5150020DC8
:101D7800B00EF324D96E000EF420DA6EDECFF6FF33
:101D8800DDCFF7FF0800F55083EC10F0CC0E0F6E96
:101D98005150020DB00EF324D96E000EF420DA6E05
:101DA800DECF11F0DDCF12F0010E1126000E122247
:101DB80011C0F6FF12C0F7FF0800F55083EC10F0D1
:101DC8001200156E390E036E2F0E046E800E056E0E
:101DD8004CEC0EF08F0E0F6E700E83EC10F00A0EA6
:101DE8001518D8A4FAEF0EF0FCEF0EF007EF0FF07D
:101DF800000E566E000E556E000E016E010EBFEC01
:101E08000FF00FEF0FF0B4EC0EF013C011F014C088
:101E180012F010EC0FF01200CE0E0F6E000E046ED2
:101E28000A0E036E11C001F012C002F0A3EC0DF00F
:101E38000150096E0A6A000E0C6E0A0E0B6EE7EC72
:101E48000BF00950300F83EC10F0CF0E0F6E11C05D
:101E580009F00A6A000E0C6E0A0E0B6EE7EC0BF026
:101E68000950300F83EC10F012000600F2A43FEF87
:101E78000FF041EF0FF05EEF0FF0080ED624D66E8C
:101E8800000ED720D76E00018F4B902B200E8F1994
:101E980007E14E0E9019D8A454EF0FF056EF0FF04B
:101EA8005DEF0FF0000E906F000E8F6F5306D8A0F5
:101EB8005406F2945C921100000E05EC10F0046ECA
:101EC80004508009026E000E3DEC10F0020E05EC85
:101ED80010F0046E04504009026E020E3DEC10F042
:101EE800930E026E070E3DEC10F0000E05EC10F09C
:101EF800046E04507F0B026E000E3DEC10F01200D1
:101F0800056ECCEC10F0A00EB3EC10F00550B3EC5D
:101F180010F00250B3EC10F0C8EC10F00B0E046E89
:101F2800B80E036E0306D8A00406032806E10428A9
:101F3800D8A4A1EF0FF0A3EF0FF096EF0FF0120067
:101F4800056E05C003F0D8900336D8900336C2500A
:101F5800C30B0310C26EC282C2B2B5EF0FF0B7EF67
:101F68000FF0B0EF0FF0C450030B036EC350016EB7
:101F780003C002F01200026E01B002D0829201D0BA
:101F8800828202C083FF82848294958E82808292AC
:101F98008284829483BED3EF0FF0D5EF0FF0CCEF9D
:101FA8000FF08290959E1200E3EF0FF007C0D9FF63
:101FB80008C0DAFFDF505BEC10F0074A082A07C0B8
:101FC800D9FF08C0DAFFDF50D8A4EDEF0FF0EFEF2C
:101FD8000FF0DAEF0FF01200026ECCEC10F0A00E4A
:101FE800B3EC10F00250B3EC10F0D0EC10F0A10EEE
:101FF800B3EC10F0B9EC10F0036EC8EC10F003501D
:102008001200026ECCEC10F0D00EB3EC10F00250BF
:10201800B3EC10F0D0EC10F0D10EB3EC10F0B9EC3A
:1020280010F0036EC8EC10F00350120001500302C8
:10203800F3CF05F0F4CF06F001500402F350062662
:1020480002500302F350062605C001F006C002F054
:102058001200F92FF62FEA2FED2FF02FF32FFC2F78
:10206800E72F932FBD2FA12F852FAF2F102700000B
:102078000300036ECCEC10F0D00EB3EC10F003505C
:10208800B3EC10F00250B3EC10F0C8EC10F01200F2
:10209800C280C19AC198C186C194C182C190C08AC8
:1020A800C098C096C094C082C090C08E1200016EC5
:1020B80001C0ADFF61EF10F09E989EA866EF10F08A
:1020C80068EF10F060EF10F01200ACEC10F088EC44
:1020D8000BF04CEC10F076EC10F08FEC10F060EC9C
:1020E8000FF01200F28EF28CF28AD59EF294D58C03
:1020F800D59AD586000ED76E060ED66E1200106ED3
:10210800000E016E0F50BFEC0FF0010E016E105063
:10211800BFEC0FF0120094869488280EC66E310E1C
:10212800C86EC79CC78E9E96A19612009EA69FEF6A
:1021380010F0A1EF10F09AEF10F09E961200930E97
:10214800036E000E046EC20E056E4CEC0EF012000B
:10215800000E816E93501E0B936EF19E1200016E5D
:1021680001C0C9FF9AEC10F01200D4EC10F0D8ECC2
:0F21780010F0C95012000A00010005FFFF01FF1F
:10218800000E0001796F1200C5849AEC10F012005D
:10219800C5809AEC10F01200C5829AEC10F012007B
:0E21A800C5869AEC10F01200C58AC588120098
:102E780000446F776E6C6F6164696E67206C6F6772
:102E880073202E2E006368616E67696E672070611B
:102E98007373776F726400436F6E74726F6C206621
:102EA8006C6167206D697373002020436F6465202F
:102EB8005061737365642020200020205061737373
:102EC800204368616E67656420200020436172209A
:102ED800426C61636B20426F78202000202053757C
:102EE800636365737366756C6C7920200020577274
:102EF8006F6E672050617373776F7264200020458E
:102F08006E7465722050617373776F72642000204D
:102F1800617474656D70742052656D61696E7300BB
:102F280050617373776F726420436F727265637454
:102F38000020202054696D65202020204520205342
:102F4800000A204E65772050617373776F726400B2
:102F580052452D456E746572202050617373000AC6
:102F68002063757272656E742050617373005472B9
:102F78007920416761696E206C65667400536574D9
:102F88002074696D6520202020200056696577200F
:102F98006C6F67202020202000436C656172206CD4
:102FA8006F6720202020004368616E6765205061AC
:102FB8007373202000446F776E6C6F6164206C6FB0
:102FC800672000436C656172696E67206C6F677378
:102FD800005761697420666F7200207320200043D7
:102FE8002000473100473200473300473400474E3E
:082FF800004F4E00475200009B
:020000040030CA
:0E000000FF071F1FFF8285FF0FC00FE00F409C
:00000001FF
