:0400000007EF00F016
:0A0008005D82B7ED0DF05BEF0DF027
:10060000002020436F64652050617373656420206F
:1006100020002043617220426C61636B20426F783E
:100620002020002057726F6E672050617373776FC0
:100630007264200020456E74657220506173737778
:100640006F7264200020617474656D70742052654F
:100650006D61696E730020202054696D6520202033
:1006600020452020530054727920416761696E2033
:100670006C656674005365742074696D6520202074
:1006800020200056696577206C6F6720202020208D
:1006900000436C656172206C6F672020202000434E
:1006A00068616E67652050617373202000446F7726
:1006B0006E6C6F6164206C6F6720005761697420F5
:1006C000666F7200207320200043200047310047EE
:1006D0003200473300473400474E004F4E00475228
:1006E00000001750800B246E175017242B6E16AE87
:1006F0007CEF03F07EEF03F07FEF03F02B802B50B5
:10070000D8B485EF03F087EF03F09CEF03F02B28BC
:10071000D8A48DEF03F08FEF03F097EF03F0000EF6
:10072000146E000E156E000E166E000E176E168EED
:10073000000E176EA4EF03F0000E146E000E156E7F
:10074000000E166E000E176E1B50800B241A1B50E5
:100750001B242C6E1AAEAFEF03F0B1EF03F0B2EF33
:1007600003F02C802C50D8B4B8EF03F0BAEF03F0AC
:10077000CFEF03F02C28D8A4C0EF03F0C2EF03F0B2
:10078000CAEF03F0000E186E000E196E000E1A6EFE
:10079000000E1B6E1A8E000E1B6ED7EF03F0000EBC
:1007A000186E000E196E000E1A6E000E1B6E185099
:1007B00019101A101B10D8A4E0EF03F0E2EF03F0B9
:1007C000FAEF03F0000E146E000E156E000E166E9A
:1007D000000E176E800E16127F0E1712245017127D
:1007E00014C014F015C015F016C016F017C017F09D
:1007F0003DEF05F02B50D8A400EF04F002EF04F019
:100800000CEF04F0000E146E000E156E000E166E46
:10081000000E176E3DEF05F02C502BC01CF01D6A2A
:100820001C5E000E1D5A7F0E1C24256E000E1D201E
:10083000266E14C020F015C021F016C022F017C09B
:1008400023F0000E146E000E156E000E166E000ED4
:10085000176E000E276E000E286E000E296E000E19
:100860002A6E000E2C6E6DEF04F02C50D8B43BEFC6
:1008700004F03DEF04F054EF04F0D8902036213618
:1008800022362336D89014361536163617362AAE49
:100890004CEF04F04EEF04F04FEF04F01480D890CA
:1008A0002736283629362A361850205C1950215808
:1008B0001A5022581B502358D8A061EF04F063EF60
:1008C00004F06CEF04F02A8C1850205E1950215A65
:1008D0001A50225A1B50235A2C2A190E2C6473EFDB
:1008E00004F075EF04F035EF04F0205021102210D1
:1008F0002310D8B47EEF04F080EF04F098EF04F0FA
:10090000278098EF04F0D89014361536163617362F
:100910002AAE8DEF04F08FEF04F090EF04F0148016
:10092000D8902736283629362A362506D8A0260616
:1009300016AE9DEF04F09FEF04F083EF04F0000E7D
:100940002C6E2AAEA6EF04F0A8EF04F0CCEF04F072
:10095000FF0E27141C6EFF0E28141D6EFF0E2914A7
:100960001E6E7F0E2A141F6E1C501D101E101F10AD
:10097000D8B4BDEF04F0BFEF04F0C3EF04F0010EF4
:100980002C6ECCEF04F014A0C8EF04F0CAEF04F012
:10099000CCEF04F0BFEF04F02C50D8B4D2EF04F049
:1009A000D4EF04F0F8EF04F0010E1426000E152227
:1009B0001622172217A0DFEF04F0E1EF04F0F8EFA2
:1009C00004F014C01CF015C01DF016C01EF017C0B6
:1009D0001FF01F341F321E321D321C321CC014F097
:1009E0001DC015F01EC016F01FC017F0254A262A9C
:1009F00026BE03EF05F0265008E12528D8A003EF16
:100A000005F005EF05F010EF05F0000E266E2568E5
:100A1000000E146E000E156E000E166E000E176E90
:100A200026BE1DEF05F0265006E12504D8B01BEFC9
:100A300005F01DEF05F02BEF05F0000E266E000E01
:100A4000256E000E146E000E156E000E166E000E52
:100A5000176E000E246E25C02BF02BA032EF05F090
:100A600034EF05F037EF05F0168E38EF05F0169EDF
:100A7000D8902B30176EEEEF03F01200136E000EBD
:100A800000019E6F46504710D8A449EF05F04BEF88
:100A900005F053EF05F0340E036E060E046E800E63
:100AA000056E25EC0DF055505610D8B45AEF05F0F0
:100AB0005CEF05F0BFEF06F0040E506062EF05F04A
:100AC00064EF05F000EF06F000017A07000E7B5B93
:100AD0007C5B7D5B7A290AE17B2908E17C2906E1C0
:100AE0007D29D8A476EF05F078EF05F08CEF05F0BE
:100AF000100E7A6F270E7B6F000E7C6F000E7D6FDD
:100B0000000E506E000E566E000E556E000E5A6EA0
:100B1000010E596EDEEF06F0000E456E000E446EBB
:100B20001328D8B496EF05F098EF05F0BBEF05F069
:100B30000A0E1318D8B49FEF05F0A1EF05F0BBEF34
:100B400005F0100E7A6F270E7B6F000E7C6F000E83
:100B50007D6F9A0E5024D96EDA6A000EDA22135095
:100B6000250FDF6E5050C50F0F6E2A0EAEEC0EF043
:100B7000502A06EF06F048504910D8A4C2EF05F0FD
:100B8000C4EF05F006EF06F04A4A4B2A400E4A1819
:100B900007E1060E4B18D8A4D0EF05F0D2EF05F010
:100BA000D8EF05F0000E4B6E000E4A6E06EF06F011
:100BB000200E4A5C030E4B58D8B0E1EF05F0E3EF8E
:100BC00005F0EBEF05F05050C50F0F6E5F0EAEEC69
:100BD0000EF006EF06F0200E4A5C030E4B58D8A02C
:100BE000F4EF05F0F6EF05F0FEEF05F05050C50FFD
:100BF0000F6E200EAEEC0EF006EF06F006EF06F0DC
:100C0000000E456E010E446E000E506E44044510F9
:100C1000D8A40DEF06F00FEF06F0DEEF06F09A0E07
:100C2000016E000E026E7E0E036E000E046EEFEC7F
:100C30000CF001500210D8A420EF06F022EF06F0CD
:100C400076EF06F0000E476E010E466E000E496EFE
:100C5000010E486EC30E126E500E116E1106D8A012
:100C60001206112806E11228D8A439EF06F03BEF4E
:100C700006F02EEF06F0010E036E060E046E800ED7
:100C8000056E25EC0DF0120E036E060E046EC00EFE
:100C9000056E25EC0DF0400E0001836F420E846F4F
:100CA0000F0E856F000E866F8307000E845B855BD9
:100CB000865B83290AE1842908E1852906E18629E2
:100CC000D8A465EF06F067EF06F054EF06F0000ECB
:100CD000016E010E36EC0EF0000E5A6E030E596EC8
:100CE000000E476E000E466EDEEF06F0100E00019D
:100CF0007A6F270E7B6F000E7C6F000E7D6F000EEB
:100D0000476E010E466E230E036E060E046E800EB5
:100D1000056E25EC0DF0450E036E060E046EC10E39
:100D2000056E25EC0DF05506D8A05606C00E0F6EC8
:100D30005550300FAEEC0EF0400E0001836F420EA6
:100D4000846F0F0E856F000E866F8307000E845B25
:100D5000855B865B83290AE1842908E1852906E110
:100D60008629D8A4B6EF06F0B8EF06F0A5EF06F096
:100D7000000E016E010E36EC0EF070EF06F0000E64
:100D8000476E010E466E000E016E010E36EC0EF03F
:100D900074EC0AF0000E4B6E000E4A6E000E566E9A
:100DA000030E556E000E476E000E466E000E456E29
:100DB000000E446E000E496E000E486E1200146E56
:100DC0000C0E1118D8A4E7EF06F0E9EF06F01CEFBF
:100DD00007F0404A412AA10E401807E10F0E4118C2
:100DE000D8A4F5EF06F0F7EF06F006EF07F0000ED7
:100DF000416E000E406E000E5A6E010E596E000ECE
:100E0000016E010E36EC0EF01AEF08F00001874B70
:100E1000882BD00E875D070E8859D8A012EF07F0F7
:100E200014EF07F023EF07F0010E4E6E000E886FEF
:100E3000000E876F23EF07F0000E4E6E000E0001CC
:100E4000886F000E876F42504310D8A42AEF07F036
:100E50002CEF07F055EF07F0810E0F6E2A0EAEEC67
:100E60000EF04F50020D700EF324D96E000EF420D8
:100E7000DA6EDECF03F0DDCF04F0830E056E25ECD5
:100E80000DF04F50126E136AD89012361336720E50
:100E90001224D96E000E1320DA6EDECF03F0DDCF00
:100EA00004F0C30E056E25EC0DF00C0E1418D8A43A
:100EB0005CEF07F05EEF07F09BEF07F0030E4F606B
:100EC00064EF07F066EF07F09BEF07F0000E016E8E
:100ED000010E36EC0EF04F2A000E436E010E426EEC
:100EE000C10E0F6E2A0EAEEC0EF04F50126E136A4A
:100EF000D890123613366E0E1224D96E000E1320BF
:100F0000DA6EDECF03F0DDCF04F0830E056E25EC44
:100F10000DF04F50020D700EF324D96E000EF42028
:100F2000DA6EDECF03F0DDCF04F0C30E056E25ECE4
:100F30000DF01AEF08F00B0E1418D8A4A2EF07F06A
:100F4000A4EF07F0E1EF07F04F50D8B4AAEF07F095
:100F5000ACEF07F0E1EF07F0000E016E010E36EC8A
:100F60000EF04F06000E436E010E426E810E0F6EA4
:100F70002A0EAEEC0EF04F50020D700EF324D96E17
:100F8000000EF420DA6EDECF03F0DDCF04F0830E26
:100F9000056E25EC0DF04F50126E136AD890123684
:100FA0001336720E1224D96E000E1320DA6EDECFC5
:100FB00003F0DDCF04F0C30E056E25EC0DF01AEF43
:100FC00008F04E50D8B4E7EF07F0E9EF07F01AEF5A
:100FD00008F00B0E1418D8A4F0EF07F0F2EF07F0AA
:100FE0001AEF08F04F04D8A4F8EF07F0FAEF07F073
:100FF0001AEF08F0000E016E010E36EC0EF0000E36
:101000004F6E000E436E010E426E810E0F6E2A0E61
:10101000AEEC0EF070C003F071C004F0830E056EEC
:1010200025EC0DF072C003F073C004F0C30E056E22
:1010300025EC0DF012000E6E0E50D8B422EF08F021
:1010400024EF08F046EF08F009BE2BEF08F029EF77
:1010500008F046EF08F006C00AF007C00BF008C021
:101060000CF009C00DF00A1E0B1E0C1E0D1E0A2AE4
:10107000000E0B220C220D220AC010F00BC011F042
:101080000CC012F00DC013F04EEF08F006C010F0C7
:1010900007C011F008C012F009C013F00650071085
:1010A00008100910D8A457EF08F059EF08F063EFC3
:1010B00008F0000E066E000E076E000E086E000EA1
:1010C000096EF4EF08F0960E0F6E6DEF08F00F2A20
:1010D000D8901332123211321032000E10140A6EF0
:1010E000000E11140B6E000E12140C6EFE0E131473
:1010F0000D6E0A500B100C100D10D8A482EF08F0E2
:1011000084EF08F067EF08F092EF08F00F2A010E65
:101110001026000E112212221322D89013321232FE
:1011200011321032000E10140A6E000E11140B6EE4
:10113000000E12140C6EFF0E13140D6E0A500B10DD
:101140000C100D10D8A4A7EF08F0A9EF08F086EF57
:1011500008F0B1EF08F00F06D890103611361236AD
:10116000133612BEB6EF08F0B8EF08F0C0EF08F083
:10117000020E0F60BEEF08F0C0EF08F0ABEF08F012
:101180000FB0C5EF08F0C7EF08F0C8EF08F0129EE7
:10119000D8900F320FC00AF00B6A0C6A0D6A0AC0B1
:1011A0000DF00C6A0B6A0A6A0A5010120B501112E9
:1011B0000C5012120D5013120E50D8B4E2EF08F07A
:1011C000E4EF08F0ECEF08F009BEEBEF08F0E9EF10
:1011D00008F0ECEF08F0138E10C006F011C007F015
:1011E00012C008F013C009F012002F343034366EEC
:1011F0003650D8A4FEEF08F000EF09F00AEF09F02E
:10120000000E2D6E000E2E6E000E2F6E000E306E34
:1012100077EF09F02DC031F02EC032F02FC033F03F
:1012200030C034F0200E1AEF09F0D8903432333247
:1012300032323132E82E15EF09F03150356E2F8EF3
:10124000FF0E2D16FF0E2E16FF0E2F16000E301657
:10125000960E365E36BE31EF09F02FEF09F047EFFC
:1012600009F03650800A970FD8B039EF09F03BEFFC
:1012700009F03DEF09F000EF09F0D89030322F323D
:101280002E322D32363E3DEF09F05FEF09F01F0E92
:1012900036644DEF09F04FEF09F057EF09F000EF1A
:1012A00009F0D8902D362E362F3630363606365089
:1012B000D8A45DEF09F05FEF09F051EF09F0355068
:1012C000D8B465EF09F067EF09F06FEF09F0301E51
:1012D0002F1E2E1E2D6C000E2E222F2230222DC0EE
:1012E0002DF02EC02EF02FC02FF030C030F01200A5
:1012F00094EC0EF0AE0E186E470E196E250E1A6E97
:10130000410E1B6E040E01EC0EF001C006F002C08F
:1013100007F0086A096A000E1BEC08F006C014F01A
:1013200007C015F008C016F009C017F071EC03F003
:1013300014C02DF015C02EF016C02FF017C030F0DD
:10134000F5EC08F02DC039F02EC03AF0010E7AEC21
:101350000CF03C6E000E7AEC0CF03B6E0A0E3C1862
:10136000D8A4B5EF09F0B7EF09F0D9EF09F0000EF6
:101370005A6E000E596E000E016E010E36EC0EF024
:10138000D9EF09F03C503EEC05F0000E546E7AEFB8
:1013900009F039C014F03AC015F03C501CEC0EF0C6
:1013A000C5EF09F03BC011F03C50DFEC06F07AEFDE
:1013B00009F059C037F05AC038F03850000AD8B494
:1013C000E4EF09F07AEF09F03750000AD8B4C2EF21
:1013D00009F0010AD8B4C9EF09F0020AD8B4D2EF73
:1013E00009F0070AD8B47AEF09F07AEF09F007EFAD
:1013F00000F0136E1304D8A400EF0AF002EF0AF015
:1014000008EF0AF0010E526E070E536E47EF0AF016
:10141000020E1318D8A40FEF0AF011EF0AF02BEF09
:101420000AF0060E536017EF0AF019EF0AF01CEFEE
:101430000AF0532A47EF0AF0070E5318D8A423EFF7
:101440000AF025EF0AF047EF0AF0010E536E000E86
:10145000526E47EF0AF0030E1318D8A432EF0AF0C9
:1014600034EF0AF047EF0AF05250D8A43AEF0AF0EE
:101470003CEF0AF047EF0AF0010E536442EF0AF026
:1014800044EF0AF047EF0AF0530647EF0AF0CB0E9D
:101490000F6E5350020D600EF324D96E000EF4202F
:1014A000DA6EDECFF6FFDDCFF7FF0800F550AEECC9
:1014B0000EF0CC0E0F6E5350020D600EF324D96E59
:1014C000000EF420DA6EDECF11F0DDCF12F0010E47
:1014D0001126000E122211C0F6FF12C0F7FF0800FD
:1014E000F550AEEC0EF01200000E016E010E36EC5F
:1014F0000EF0000E00018E6F000E8D6FD58EC3EFC3
:101500000AF0660E036E060E046E800E056E25EC64
:101510000DF0BB0E036E060E046EC00E056E25ECBC
:101520000DF0C40E036E060E046ECB0E056E25EC98
:101530000DF0CA0E0F6E57C009F058C00AF0000E29
:101540000C6E0A0E0B6E98EC0BF00950300FAEECDF
:101550000EF0C90E0F6E000E046E0A0E036E57C019
:1015600001F058C002F0D7EC0AF001C009F002C047
:101570000AF0000E0C6E0A0E0B6E98EC0BF0095080
:10158000300FAEEC0EF057505810D8A4CAEF0AF046
:10159000CCEF0AF081EF0AF0D59E000E586E0A0ECD
:1015A000576E000E016E010E36EC0EF01200000EAA
:1015B000066E04BEE0EF0AF0DEEF0AF0E6EF0AF096
:1015C000036C041ED8B0042A010E066E02BEEDEFB5
:1015D0000AF0EBEF0AF0F3EF0AF0016C021ED8B04C
:1015E000022A010E061A000E086E000E076E035046
:1015F0000410D8B4FEEF0AF000EF0BF028EF0BF068
:10160000010E056E08EF0BF0D89003360436052A5C
:1016100004AE0DEF0BF00FEF0BF004EF0BF0D890D2
:10162000073608360350015C04500258D8A01BEF5F
:101630000BF01DEF0BF022EF0BF00350015E045096
:10164000025A0780D89004320332052E0FEF0BF0B8
:101650000650D8B42EEF0BF030EF0BF034EF0BF058
:10166000076C081ED8B0082A07C001F008C002F0B5
:101670001200000E956E9450F80B946EF00EBA1690
:10168000000EBD6E9698070EB46E8290020E046E28
:10169000040E036EBA0EE82EFED7032EFCD7042EDE
:1016A000FAD700D0000E016E330E36EC0EF01B0E92
:1016B000036E9E0EE82EFED7032EFCD700D0000E40
:1016C000016E330E36EC0EF0A60EE82EFED700D0DB
:1016D000000E016E330E36EC0EF000D000D000F09C
:1016E000000E016E020E36EC0EF0A60EE82EFED7AE
:1016F00000D0000E016E380E36EC0EF0A60EE82E6D
:10170000FED700D0000E016E010E36EC0EF0040E76
:10171000036E3E0EE82EFED7032EFCD7000E016EA0
:101720000C0E36EC0EF0A60EE82EFED700D01200FE
:10173000000E0E6E0ABEA1EF0BF09FEF0BF0A7EFAD
:101740000BF0096C0A1ED8B00A2A010E0E6E0CBEF0
:10175000AEEF0BF0ACEF0BF0B2EF0BF00B6C0C1E1E
:10176000D8B00C2A0B500C10D8B4B9EF0BF0BBEF6B
:101770000BF0DFEF0BF0010E0D6EC3EF0BF0D89006
:101780000B360C360D2A0CAEC8EF0BF0CAEF0BF07F
:10179000BFEF0BF00B50095C0C500A58D8A0D3EFE8
:1017A0000BF0D5EF0BF0D9EF0BF00B50095E0C509E
:1017B0000A5AD8900C320B320D2ECAEF0BF00E5095
:1017C000D8B4E5EF0BF0E7EF0BF0EBEF0BF0096CA3
:1017D0000A1ED8B00A2A09C009F00AC00AF012008D
:1017E000819A818C818E81B2F8EF0BF0FAEF0BF0C9
:1017F000FDEF0BF0010E37EF0CF081B802EF0CF0AB
:1018000004EF0CF007EF0CF00A0E37EF0CF0818AB2
:10181000819C818E81B20FEF0CF011EF0CF014EF70
:101820000CF0020E37EF0CF081B819EF0CF01BEF43
:101830000CF01EEF0CF00B0E37EF0CF0818A818C50
:10184000819E819E81B227EF0CF029EF0CF02CEFE6
:101850000CF0030E37EF0CF081B831EF0CF033EFE2
:101860000CF036EF0CF00C0E37EF0CF0FF0E120000
:10187000020E4FEC0EF03D6E010E4FEC0EF03E6E80
:10188000000E4FEC0EF03F6E3DAC49EF0CF04BEF0D
:101890000CF057EF0CF03D380F0B010B300F00012F
:1018A000916F3D500F0B300F926F61EF0CF03D3890
:1018B0000F0B030B300F0001916F3D500F0B300FDA
:1018C000926F3A0E936F3E380F0B0F0B300F946FE1
:1018D0003E500F0B300F956F3A0E966F3F380F0B3F
:1018E0000F0B300F976F3F500F0B300F986F000E9C
:1018F000996F1200016E0150D8A481EF0CF083EFB4
:101900000CF087EF0CF0F0EC0BF0B4EF0CF00104EE
:10191000D8A48DEF0CF08FEF0CF0B3EF0CF0F0ECDF
:101920000BF0516E5128D8B498EF0CF09AEF0CF0F0
:10193000A7EF0CF05C50D8B4A0EF0CF0A2EF0CF0C5
:10194000A7EF0CF0000E5C6E5150B4EF0CF0512874
:10195000D8A4ADEF0CF0AFEF0CF0B3EF0CF0010E2C
:101960005C6EB3EF0CF0FF0E1200000E066E000E60
:10197000056E03500410D8B4C0EF0CF0C2EF0CF0A9
:10198000EAEF0CF0010E076ECAEF0CF0D8900336A8
:101990000436072A04AECFEF0CF0D1EF0CF0C6EFFF
:1019A0000CF0D890053606360350015C04500258FE
:1019B000D8A0DDEF0CF0DFEF0CF0E4EF0CF00350FB
:1019C000015E0450025A0580D89004320332072E7B
:1019D000D1EF0CF005C001F006C002F01200000EBD
:1019E000086E000E076E12EF0DF007500324D96E3B
:1019F00008500420DA6E07500124E16E08500220DE
:101A0000E26EDE50E618D8B408EF0DF00AEF0DF0E4
:101A100010EF0DF0000E026E010E016E24EF0DF0BE
:101A2000074A082A07500124D96E08500220DA6EAE
:101A3000DF50D8A41EEF0DF020EF0DF0F5EF0CF005
:101A4000000E026E000E016E1200000E016E0550B7
:101A500036EC0EF042EF0DF0010E016E03C0F6FF02
:101A600004C0F7FFF86A050EF76403D00800F550CC
:101A700005D0F6CFE9FFF7CFEAFFEF5036EC0EF0D6
:101A8000034A042A03C0F6FF04C0F7FFF86A050EF4
:101A9000F76403D00800F55005D0F6CFE9FFF7CF83
:101AA000EAFFEF500009D8A458EF0DF05AEF0DF0FF
:101AB0002CEF0DF01200C80EF66E1C0EF76E000E25
:101AC000F86E00EE60F010EE23F00900F5CFEEFFA7
:101AD000E550E150FAE1DE0EF66E1D0EF76E000ED7
:101AE000F86E00EE55F010EE08F00900F5CFEEFFAD
:101AF000E550E150FAE100EE83F01C0EEE6AE806D4
:101B0000FDE100EE3DF0180EEE6AE806FDE15D90A5
:101B10005D92000EF86E000178EF09F0CE0E0F6EA8
:101B2000000E046E0A0E036E11C001F012C002F026
:101B3000B5EC0CF00150096E0A6A000E0C6E0A0E2C
:101B40000B6E98EC0BF00950300FAEEC0EF0CF0E90
:101B50000F6E11C009F00A6A000E0C6E0A0E0B6EB1
:101B600098EC0BF00950300FAEEC0EF012000600AE
:101B7000F2A4BDEF0DF0BFEF0DF0DBEF0DF0080E9E
:101B8000D624D66E000ED720D76E4C4A4D2A200E92
:101B90004C1807E14E0E4D18D8A4D1EF0DF0D3EF3D
:101BA0000DF0DAEF0DF0000E4D6E000E4C6E570684
:101BB000D8A05806F2945D921100000E4FEC0EF082
:101BC000046E04508009026E000E76EC0EF0020ED8
:101BD0004FEC0EF0046E04504009026E020E76ECDB
:101BE0000EF0930E026E070E76EC0EF0000E4FEC28
:101BF0000EF0046E04507F0B026E000E76EC0EF0B9
:101C00001200056E05C003F0D8900336D890033655
:101C1000C250C30B0310C26EC282C2B212EF0EF0EA
:101C200014EF0EF00DEF0EF0C450030B036EC35013
:101C3000016E03C002F01200166E560E036E060E01
:101C4000046E800E056E25EC0DF08F0E0F6E700E7B
:101C5000AEEC0EF0EAEC0EF01650F9EC09F014C000
:101C600011F015C012F08EEC0DF01200026E01B0F2
:101C700002D0829201D0828202C083FF8284829449
:101C8000958E828082928284829483BE4AEF0EF087
:101C90004CEF0EF043EF0EF08290959E1200026E14
:101CA000F7EC0EF0D00EDEEC0EF00250DEEC0EF093
:101CB000FBEC0EF0D10EDEEC0EF0E4EC0EF0036E59
:101CC000F3EC0EF003501200DB06D806CC06CF066C
:101CD000D206D506DE06C9068306AD069106750650
:0B1CE0009F061027000031313030005B
:101CEC00036EF7EC0EF0D00EDEEC0EF00350DEECD3
:101CFC000EF00250DEEC0EF0F3EC0EF01200C2808F
:101D0C00C19AC198C186C194C182C190C08AC09841
:101D1C00C096C094C082C090C08E1200D7EC0EF05A
:101D2C0039EC0BF085EC0EF0A1EC0EF0BAEC0EF0E9
:101D3C00DDEC0DF01200F28EF28CF28AD59EF2944C
:101D4C00D58CD59AD586000ED76E060ED66E12009F
:101D5C00106E000E016E0F5036EC0EF0010E016E7F
:101D6C00105036EC0EF0120094869488280EC66E35
:101D7C00310EC86EC79CC78E9E96A19612009EA669
:101D8C00CAEF0EF0CCEF0EF0C5EF0EF09E961200DF
:101D9C00910E036E000E046EC20E056E25EC0DF056
:101DAC001200000E816E93501E0B936EF19E12006A
:101DBC00016E01C0C9FFC5EC0EF01200FFEC0EF075
:101DCC0003EC0FF0C950120038EC0CF0CEEC0EF016
:101DDC00120003000A0001000101C584C5EC0EF0DD
:101DEC001200C580C5EC0EF01200C582C5EC0EF0D9
:101DFC001200C586C5EC0EF01200C58AC58812000B
:020000040030CA
:0E000000FF071F1FFF8285FF0FC00FE00F409C
:00000001FF
