:020000040000FA
:0400000081EF04F098
:1006000000202054494D4520202020204520205303
:100610005000432000473100473200473300473441
:0B06200000474E004F4E004752000004
:10062C00186E1804D8A41DEF03F01FEF03F023EF8E
:10063C0003F0070E1C6E4CEF03F0020E1818D8A432
:10064C002AEF03F02CEF03F038EF03F0060E1C1822
:10065C00D8B433EF03F035EF03F04CEF03F01C2A62
:10066C004CEF03F0030E1818D8A43FEF03F041EF42
:10067C0003F04CEF03F01C50D8B447EF03F049EFF4
:10068C0003F04CEF03F01C064CEF03F0CB0E146E92
:10069C001C50020D010EF324D96E000EF420DA6EFC
:1006AC00DECFF6FFDDCFF7FF0800F550D1EC04F0FC
:1006BC00CC0E146E1C50020D010EF324D96E000EDC
:1006CC00F420DA6EDECF16F0DDCF17F0010E162611
:1006DC00000E172216C0F6FF17C0F7FF0800F550E2
:1006EC00D1EC04F01200000E956E9450F80B946E41
:1006FC008290020E156E040E146EBA0EE82EFED702
:10070C00142EFCD7152EFAD700D0000E126E330E15
:10071C009AEC04F01B0E146E9E0EE82EFED7142ECF
:10072C00FCD700D0000E126E330E9AEC04F0A60E1D
:10073C00E82EFED700D0000E126E330E9AEC04F0A9
:10074C0000D000D000F0000E126E020E9AEC04F0F5
:10075C00A60EE82EFED700D0000E126E380E9AECC4
:10076C0004F0A60EE82EFED700D0000E126E010E7D
:10077C009AEC04F0040E146E3E0EE82EFED7142EE6
:10078C00FCD7000E126E0C0E9AEC04F0A60EE82E9E
:10079C00FED700D01200126E1250D8A4D8EF03F07E
:1007AC00DAEF03F0DEEF03F00CEC04F00BEF04F0E7
:1007BC001204D8A4E4EF03F0E6EF03F00AEF04F020
:1007CC000CEC04F01B6E1B28D8B4EFEF03F0F1EF28
:1007DC0003F0FEEF03F01150D8B4F7EF03F0F9EF8C
:1007EC0003F0FEEF03F0000E116E1B500BEF04F044
:1007FC001B28D8A404EF04F006EF04F00AEF04F071
:10080C00010E116E0AEF04F0FF0E1200819A818C1A
:10081C00818E81B214EF04F016EF04F019EF04F09E
:10082C00010E35EF04F0818A819C818E81B221EF1B
:10083C0004F023EF04F026EF04F0020E35EF04F081
:10084C00818A818C819E819E81B22FEF04F031EFE1
:10085C0004F034EF04F0030E35EF04F0FF0E120039
:10086C00C20E146E310ED1EC04F0C30E146E350EA4
:10087C00D1EC04F0C40E146E3A0ED1EC04F0C50E9B
:10088C00146E300ED1EC04F0C60E146E300ED1EC9A
:10089C0004F0C70E146E3A0ED1EC04F0C80E146EB0
:1008AC00300ED1EC04F0C90E146E300ED1EC04F005
:1008BC001200000E126E16509AEC04F072EF04F057
:1008CC00010E126E14C0F6FF15C0F7FF0800F550AC
:1008DC009AEC04F0144A152A14C0F6FF15C0F7FF61
:1008EC000800F5500009D8A47EEF04F080EF04F066
:1008FC0066EF04F01200D00EF66E090EF76E000EC5
:10090C00F86E00EE01F010EE11F00900F5CFEEFFDD
:10091C00E550E150FAE11C6A1B6A000EF86E060EF7
:10092C00F76E0001C4EF04F0136E12B002D0829285
:10093C0001D0828213C083FF82848294958E828040
:10094C0082928284829483BEAEEF04F0B0EF04F006
:10095C00A7EF04F08290959E1200196E010E146E92
:10096C00060E156E800E166E5FEC04F036EC04F07D
:10097C00195016EC03F0DDEC04F01200F8EC04F066
:10098C00010ED1EC03F01A6E1A50B3EC04F0C6EF62
:10099C0004F000EF00F0156E000E126E14509AEC7D
:1009AC0004F0010E126E15509AEC04F01200CE0EEB
:1009BC00146E390ED1EC04F0CF0E146E390ED1EC4E
:1009CC0004F0120024062106150618061B061E0646
:0509DC002706120601D0
:1009E200000E816E93501E0B936EF19E1200F1EC7D
:0809F20004F079EC03F012009F
:020000040020DA
:08000000FFFFFFFFFFFFFFFF00
:020000040030CA
:0E000000FF071F1FFF8285FF0FC00FE00F409C
:00000001FF
