:020000040000FA
:040000004EEF05F0CA
:100600000054494D452020204520205350004320D0
:1006100000473100473200473300473400474E005F
:070620004F4E00475200009D
:1006280020EE29F010EE34F0070EDBCFE3FFE806EA
:10063800FCE220EE21F010EE3CF0070EDBCFE3FFEA
:10064800E806FCE220EE19F010EE44F0070EDBCFCE
:10065800E3FFE806FCE220EE11F010EE4CF0070E86
:10066800DBCFE3FFE806FCE2000E326E400E68ECDA
:1006780005F0000E556E000E546E010E326E340EEB
:100688005424D96E000E5520DA6EDF5068EC05F060
:10069800544A552A55BE5AEF03F0555009E1080E41
:1006A800545CD8A05AEF03F05CEF03F041EF03F07D
:1006B800000E326E480E68EC05F0000E576E000E04
:1006C800566E010E326E3C0E5624D96E000E57201F
:1006D800DA6EDF5068EC05F0564A572A57BE7EEFAF
:1006E80003F0575009E1080E565CD8A07EEF03F0DE
:1006F80080EF03F065EF03F0000E326E500E68ECE9
:1007080005F0000E596E000E586E010E326E440E42
:100718005824D96E000E5920DA6EDF5068EC05F0C7
:10072800584A592A59BEA2EF03F0595009E1080E58
:10073800585CD8A0A2EF03F0A4EF03F089EF03F010
:10074800000E326E580E68EC05F0000E5B6E000E5F
:100758005A6E010E326E4C0E5A24D96E000E5B2072
:10076800DA6EDF5068EC05F05A4A5B2A5BBEC6EFCA
:1007780003F05B5009E1080E5A5CD8A0C6EF03F0FD
:10078800C8EF03F0ADEF03F01200386E3804D8A4B8
:10079800D0EF03F0D2EF03F0D8EF03F0010E5E6E56
:1007A800070E5F6E19EF04F0020E3818D8A4DFEFB9
:1007B80003F0E1EF03F0FBEF03F0060E5F60E7EFF5
:1007C80003F0E9EF03F0ECEF03F05F2A19EF04F010
:1007D800070E5F18D8A4F3EF03F0F5EF03F019EF55
:1007E80004F0010E5F6E000E5E6E19EF04F0030E4A
:1007F8003818D8A402EF04F004EF04F019EF04F05D
:100808005E04D8A40AEF04F00CEF04F00EEF04F035
:1008180019EF04F0010E5F6414EF04F016EF04F012
:1008280019EF04F05F0619EF04F0CB0E346E5F5039
:10083800020D010EF324D96E000EF420DA6EDECF1D
:10084800F6FFDDCFF7FF0800F550CFEC05F0CC0E32
:10085800346E5F50020D010EF324D96E000EF420A1
:10086800DA6EDECF36F0DDCF37F0010E3626000E19
:10087800372236C0F6FF37C0F7FF0800F550CFEC37
:1008880005F01200000E956E9450F80B946E82904D
:10089800020E356E040E346EBA0EE82EFED7342ED4
:1008A800FCD7352EFAD700D0000E326E330E68EC26
:1008B80005F01B0E346E9E0EE82EFED7342EFCD7A4
:1008C80000D0000E326E330E68EC05F0A60EE82E4E
:1008D800FED700D0000E326E330E68EC05F000D063
:1008E80000D000F0000E326E020E68EC05F0A60E85
:1008F800E82EFED700D0000E326E380E68EC05F0F8
:10090800A60EE82EFED700D0000E326E010E68EC5F
:1009180005F0040E346E3E0EE82EFED7342EFCD7BA
:10092800000E326E0C0E68EC05F0A60EE82EFED70F
:1009380000D01200326E3250D8A4A5EF04F0A7EF11
:1009480004F0ABEF04F0D9EC04F0D8EF04F0320473
:10095800D8A4B1EF04F0B3EF04F0D7EF04F0D9EC6A
:1009680004F05D6E5D28D8B4BCEF04F0BEEF04F06F
:10097800CBEF04F03150D8B4C4EF04F0C6EF04F064
:10098800CBEF04F0000E316E5D50D8EF04F05D2817
:10099800D8A4D1EF04F0D3EF04F0D7EF04F0010EA0
:1009A800316ED7EF04F0FF0E1200819A818C818E90
:1009B80081B2E1EF04F0E3EF04F0E6EF04F0010E9A
:1009C80002EF05F0818A819C818E81B2EEEF04F0FE
:1009D800F0EF04F0F3EF04F0020E02EF05F0818A65
:1009E800818C819E819E81B2FCEF04F0FEEF04F0C1
:1009F80001EF05F0030E02EF05F0FF0E1200C20E24
:100A0800346E310ECFEC05F0C30E346E350ECFECDC
:100A180005F0C40E346E3A0ECFEC05F0C50E346EF8
:100A2800300ECFEC05F0C60E346E300ECFEC05F06C
:100A3800C70E346E3A0ECFEC05F0C80E346E300E89
:100A4800CFEC05F0C90E346E300ECFEC05F0120075
:100A5800000E326E365068EC05F03FEF05F0010EDF
:100A6800326E34C0F6FF35C0F7FF0800F55068EC69
:100A780005F0344A352A34C0F6FF35C0F7FF0800C0
:100A8800F5500009D8A44BEF05F04DEF05F033EF12
:100A980005F01200020EF66E0B0EF76E000EF86EE1
:100AA80000EE01F010EE31F00900F5CFEEFFE55051
:100AB800E150FAE15F6A5E6A5D6A000EF86E060E42
:100AC800F76E0001C2EF05F0336E32B002D08292A9
:100AD80001D0828233C083FF82848294958E828083
:100AE80082928284829483BE7CEF05F07EEF05F0CB
:100AF80075EF05F08290959E120020061D061106DE
:100B0800140617061A0623060E06001E1E1F1F1FB0
:100B18000C000003071F1F1F0C00001C040E1F04FD
:0B0B280000000007040E1F0400000185
:100B3400810E346E030ECFEC05F0800E346E020E7F
:100B4400CFEC05F0C10E346E010ECFEC05F0C00EF3
:100B5400346E000ECFEC05F01200396E010E346EC7
:100B6400060E356E840E366E2CEC05F09AEC05F00C
:100B740003EC05F03950C9EC03F0DBEC05F012008E
:100B8400E6EC05F0010E9EEC04F05C6E5C50AFECFC
:100B940005F0C4EF05F000EF00F0356E000E326E84
:100BA400345068EC05F0010E326E355068EC05F0F7
:100BB4001200CE0E346E390ECFEC05F0CF0E346E2B
:100BC400390ECFEC05F01200EDEC05F046EC04F024
:100BD40014EC03F01200000E816E93501E0B936E02
:040BE400F19E12006C
:020000040020DA
:08000000FFFFFFFFFFFFFFFF00
:020000040030CA
:0E000000FF071F1FFF8285FF0FC00FE00F409C
:00000001FF
