:020000040000FA
:0400000018EF09F0FC
:100600000054494D452020204520205350004320D0
:1006100000473100473200473300473400474E005F
:070620004F4E00475200009D
:100628001750800B246E175017242B6E16AE1FEF31
:1006380003F021EF03F022EF03F02B802B50D8B406
:1006480028EF03F02AEF03F03FEF03F02B28D8A49C
:1006580030EF03F032EF03F03AEF03F0000E146EC0
:10066800000E156E000E166E000E176E168E000E1A
:10067800176E47EF03F0000E146E000E156E000E95
:10068800166E000E176E1B50800B241A1B501B246D
:100698002C6E1AAE52EF03F054EF03F055EF03F04F
:1006A8002C802C50D8B45BEF03F05DEF03F072EFB1
:1006B80003F02C28D8A463EF03F065EF03F06DEF87
:1006C80003F0000E186E000E196E000E1A6E000E62
:1006D8001B6E1A8E000E1B6E7AEF03F0000E186E5A
:1006E800000E196E000E1A6E000E1B6E18501910AF
:1006F8001A101B10D8A483EF03F085EF03F09DEFC9
:1007080003F0000E146E000E156E000E166E000E2D
:10071800176E800E16127F0E17122450171214C06F
:1007280014F015C015F016C016F017C017F0E0EF5A
:1007380004F02B50D8A4A3EF03F0A5EF03F0AFEF1C
:1007480003F0000E146E000E156E000E166E000EED
:10075800176EE0EF04F02C502BC01CF01D6A1C5ED5
:10076800000E1D5A7F0E1C24256E000E1D20266EBD
:1007780014C020F015C021F016C022F017C023F0D5
:10078800000E146E000E156E000E166E000E176E1B
:10079800000E276E000E286E000E296E000E2A6EBF
:1007A800000E2C6E10EF04F02C50D8B4DEEF03F0DE
:1007B800E0EF03F0F7EF03F0D89020362136223629
:1007C8002336D89014361536163617362AAEEFEF7C
:1007D80003F0F1EF03F0F2EF03F01480D89027361E
:1007E800283629362A361850205C195021581A50B4
:1007F80022581B502358D8A004EF04F006EF04F049
:100808000FEF04F02A8C1850205E1950215A1A5004
:10081800225A1B50235A2C2A190E2C6416EF04F066
:1008280018EF04F0D8EF03F0205021102210231005
:10083800D8B421EF04F023EF04F03BEF04F0278055
:100848003BEF04F0D89014361536163617362AAE14
:1008580030EF04F032EF04F033EF04F01480D89056
:100868002736283629362A362506D8A0260616AE73
:1008780040EF04F042EF04F026EF04F0000E2C6E77
:100888002AAE49EF04F04BEF04F06FEF04F0FF0ECF
:1008980027141C6EFF0E28141D6EFF0E29141E6EE1
:1008A8007F0E2A141F6E1C501D101E101F10D8B466
:1008B80060EF04F062EF04F066EF04F0010E2C6EB6
:1008C8006FEF04F014A06BEF04F06DEF04F06FEF1E
:1008D80004F062EF04F02C50D8B475EF04F077EF11
:1008E80004F09BEF04F0010E1426000E15221622C8
:1008F800172217A082EF04F084EF04F09BEF04F0B6
:1009080014C01CF015C01DF016C01EF017C01FF053
:100918001F341F321E321D321C321CC014F01DC081
:1009280015F01EC016F01FC017F0254A262A26BE4D
:10093800A6EF04F0265008E12528D8A0A6EF04F079
:10094800A8EF04F0B3EF04F0000E266E2568000E41
:10095800146E000E156E000E166E000E176E26BE73
:10096800C0EF04F0265006E12504D8B0BEEF04F02D
:10097800C0EF04F0CEEF04F0000E266E000E256ED8
:10098800000E146E000E156E000E166E000E176E19
:10099800000E246E25C02BF02BA0D5EF04F0D7EF66
:1009A80004F0DAEF04F0168EDBEF04F0169ED89010
:1009B8002B30176E91EF03F012000E6E0E50D8B464
:1009C800E8EF04F0EAEF04F00CEF05F009BEF1EFF0
:1009D80004F0EFEF04F00CEF05F006C00AF007C0D2
:1009E8000BF008C00CF009C00DF00A1E0B1E0C1EFF
:1009F8000D1E0A2A000E0B220C220D220AC010F02E
:100A08000BC011F00CC012F00DC013F014EF05F07C
:100A180006C010F007C011F008C012F009C013F0AA
:100A28000650071008100910D8A41DEF05F01FEF95
:100A380005F029EF05F0000E066E000E076E000E99
:100A4800086E000E096EBAEF05F0960E0F6E33EFC2
:100A580005F00F2AD8901332123211321032000EDC
:100A680010140A6E000E11140B6E000E12140C6E88
:100A7800FE0E13140D6E0A500B100C100D10D8A496
:100A880048EF05F04AEF05F02DEF05F058EF05F0B7
:100A98000F2A010E1026000E112212221322D890BE
:100AA8001332123211321032000E10140A6E000E78
:100AB80011140B6E000E12140C6EFF0E13140D6E33
:100AC8000A500B100C100D10D8A46DEF05F06FEF45
:100AD80005F04CEF05F077EF05F00F06D8901036CB
:100AE80011361236133612BE7CEF05F07EEF05F094
:100AF80086EF05F0020E0F6084EF05F086EF05F033
:100B080071EF05F00FB08BEF05F08DEF05F08EEF6C
:100B180005F0129ED8900F320FC00AF00B6A0C6ACB
:100B28000D6A0AC00DF00C6A0B6A0A6A0A501012A4
:100B38000B5011120C5012120D5013120E50D8B443
:100B4800A8EF05F0AAEF05F0B2EF05F009BEB1EF86
:100B580005F0AFEF05F0B2EF05F0138E10C006F008
:100B680011C007F012C008F013C009F0120020EEFF
:100B780052F010EE03F0070EDBCFE3FFE806FCE2CD
:100B880020EE4AF010EE0BF0070EDBCFE3FFE8068D
:100B9800FCE220EE42F010EE13F0070EDBCFE3FF8D
:100BA800E806FCE220EE3AF010EE1BF0070EDBCF71
:100BB800E3FFE806FCE2000E016E400ED1EC09F0FE
:100BC800000E246E000E236E010E016E030E232408
:100BD800D96E000E2420DA6EDF50D1EC09F0234ADA
:100BE800242A24BE01EF06F0245009E1080E235CF4
:100BF800D8A001EF06F003EF06F0E8EF05F0000ECD
:100C0800016E480ED1EC09F0000E266E000E256E1E
:100C1800010E016E0B0E2524D96E000E2620DA6E09
:100C2800DF50D1EC09F0254A262A26BE25EF06F02A
:100C3800265009E1080E255CD8A025EF06F027EF1D
:100C480006F00CEF06F0000E016E500ED1EC09F024
:100C5800000E286E000E276E010E016E130E27245B
:100C6800D96E000E2820DA6EDF50D1EC09F0274A41
:100C7800282A28BE49EF06F0285009E1080E275C0B
:100C8800D8A049EF06F04BEF06F030EF06F0000E63
:100C9800016E580ED1EC09F0000E2A6E000E296E76
:100CA800010E016E1B0E2924D96E000E2A20DA6E61
:100CB800DF50D1EC09F0294A2A2A2ABE6DEF06F046
:100CC8002A5009E1080E295CD8A06DEF06F06FEFF5
:100CD80006F054EF06F012002F343034366E3650DA
:100CE800D8A479EF06F07BEF06F085EF06F0000E4A
:100CF8002D6E000E2E6E000E2F6E000E306EF2EF6F
:100D080006F02DC031F02EC032F02FC033F030C0C5
:100D180034F0200E95EF06F0D89034323332323268
:100D28003132E82E90EF06F03150356E2F8EFF0EDF
:100D38002D16FF0E2E16FF0E2F16000E3016960ECD
:100D4800365E36BEACEF06F0AAEF06F0C2EF06F04C
:100D58003650800A970FD8B0B4EF06F0B6EF06F019
:100D6800B8EF06F07BEF06F0D89030322F322E32F3
:100D78002D32363EB8EF06F0DAEF06F01F0E366475
:100D8800C8EF06F0CAEF06F0D2EF06F07BEF06F0E8
:100D9800D8902D362E362F36303636063650D8A413
:100DA800D8EF06F0DAEF06F0CCEF06F03550D8B4FD
:100DB800E0EF06F0E2EF06F0EAEF06F0301E2F1E35
:100DC8002E1E2D6C000E2E222F2230222DC02DF02B
:100DD8002EC02EF02FC02FF030C030F01200126E4F
:100DE8001204D8A4FAEF06F0FCEF06F002EF07F0C1
:100DF800010E5C6E070E5D6E41EF07F0020E1218D1
:100E0800D8A409EF07F00BEF07F025EF07F0060E5F
:100E18005D6011EF07F013EF07F016EF07F05D2A9A
:100E280041EF07F0070E5D18D8A41DEF07F01FEF7C
:100E380007F041EF07F0010E5D6E000E5C6E41EFAA
:100E480007F0030E1218D8A42CEF07F02EEF07F0C6
:100E580041EF07F05C50D8A434EF07F036EF07F005
:100E680041EF07F0010E5D643CEF07F03EEF07F03D
:100E780041EF07F05D0641EF07F0CB0E0E6E5D50B7
:100E8800020D600EF324D96E000EF420DA6EDECF68
:100E9800F6FFDDCFF7FF0800F55036EC0AF0CC0E70
:100EA8000E6E5D50020D600EF324D96E000EF42014
:100EB800DA6EDECF10F0DDCF11F0010E1026000E35
:100EC800112210C0F6FF11C0F7FF0800F55036ECEC
:100ED8000AF01200000E956E9450F80B946E8290F2
:100EE800020E046E040E036EBA0EE82EFED7032E11
:100EF800FCD7042EFAD700D0000E016E330ED1ECC9
:100F080009F01B0E036E9E0EE82EFED7032EFCD7AB
:100F180000D0000E016E330ED1EC09F0A60EE82EBB
:100F2800FED700D0000E016E330ED1EC09F000D0D0
:100F380000D000F0000E016E020ED1EC09F0A60EF2
:100F4800E82EFED700D0000E016E380ED1EC09F065
:100F5800A60EE82EFED700D0000E016E010ED1ECD1
:100F680009F0040E036E3E0EE82EFED7032EFCD7C2
:100F7800000E016E0C0ED1EC09F0A60EE82EFED77D
:100F880000D01200000E0D6E09BECFEF07F0CDEFB6
:100F980007F0D5EF07F0086C091ED8B0092A010E32
:100FA8000D6E0BBEDCEF07F0DAEF07F0E0EF07F0AD
:100FB8000A6C0B1ED8B00B2A0A500B10D8B4E7EFF6
:100FC80007F0E9EF07F00DEF08F0010E0C6EF1EFF6
:100FD80007F0D8900A360B360C2A0BAEF6EF07F05E
:100FE800F8EF07F0EDEF07F00A50085C0B500958CE
:100FF800D8A001EF08F003EF08F007EF08F00A5057
:10100800085E0B50095AD8900B320A320C2EF8EFB2
:1010180007F00D50D8B413EF08F015EF08F019EFEA
:1010280008F0086C091ED8B0092A08C008F009C0E1
:1010380009F01200819A818C818E81B226EF08F026
:1010480028EF08F02BEF08F0010E65EF08F081B8E3
:1010580030EF08F032EF08F035EF08F00A0E65EFD0
:1010680008F0818A819C818E81B23DEF08F03FEFC4
:1010780008F042EF08F0020E65EF08F081B847EF7C
:1010880008F049EF08F04CEF08F00B0E65EF08F098
:10109800818A818C819E819E81B255EF08F057EF3D
:1010A80008F05AEF08F0030E65EF08F081B85FEF1B
:1010B80008F061EF08F064EF08F00C0E65EF08F037
:1010C800FF0E120042EC0AF0AE0E186E470E196EB3
:1010D800250E1A6E410E1B6E040EB6EC09F001C007
:1010E80006F002C007F0086A096A000EE1EC04F095
:1010F80006C014F007C015F008C016F009C017F0B4
:1011080014EC03F014C02DF015C02EF016C02FF00B
:1011180017C030F070EC06F02DC037F02EC038F054
:10112800010EA3EC08F0396E37C013F038C014F084
:101138003950EAEC09F068EF08F000EF00F0016EB2
:101148000150D8A4AAEF08F0ACEF08F0B0EF08F00F
:101158001EEC08F0DDEF08F00104D8A4B6EF08F0A3
:10116800B8EF08F0DCEF08F01EEC08F05B6E5B28C7
:10117800D8B4C1EF08F0C3EF08F0D0EF08F05A5028
:10118800D8B4C9EF08F0CBEF08F0D0EF08F0000EA4
:101198005A6E5B50DDEF08F05B28D8A4D6EF08F054
:1011A800D8EF08F0DCEF08F0010E5A6EDCEF08F01B
:1011B800FF0E1200000E066E000E056E035004109E
:1011C800D8B4E9EF08F0EBEF08F013EF09F0010EDF
:1011D800076EF3EF08F0D89003360436072A04AEFA
:1011E800F8EF08F0FAEF08F0EFEF08F0D8900536BE
:1011F80006360350015C04500258D8A006EF09F0E7
:1012080008EF09F00DEF09F00350015E0450025A8F
:101218000580D89004320332072EFAEF08F005C093
:1012280001F006C002F01200960EF66E140EF76E6C
:10123800000EF86E00EE60F010EE10F00900F5CF29
:10124800EEFFE550E150FAE12C0EF66E140EF76E43
:10125800000EF86E00EE3AF010EE21F00900F5CF1E
:10126800EEFFE550E150FAE15D6A5C6A5B6A000EE8
:10127800F86E060EF76E000166EF08F0C20E0E6EED
:10128800310E36EC0AF0C30E0E6E350E36EC0AF04F
:10129800C40E0E6E3A0E36EC0AF0C50E0E6E300E07
:1012A80036EC0AF0C60E0E6E300E36EC0AF0C70E9B
:1012B8000E6E3A0E36EC0AF0C80E0E6E300E36EC94
:1012C8000AF0C90E0E6E300E36EC0AF01200CE0E81
:1012D8000E6E000E046E0A0E036E10C001F011C0EF
:1012E80002F0DEEC08F00150086E096A000E0B6E81
:1012F8000A0E0A6EC6EC07F00850300F36EC0AF0FA
:10130800CF0E0E6E10C008F0096A000E0B6E0A0EA2
:101318000A6EC6EC07F00850300F36EC0AF01200DF
:10132800000E016E0550D1EC09F0A7EF09F0010E8F
:10133800016E03C0F6FF04C0F7FF0800F550D1ECBA
:1013480009F0034A042A03C0F6FF04C0F7FF0800A7
:10135800F5500009D8A4B3EF09F0B5EF09F09BEFF9
:1013680009F01200056E05C003F0D8900336D89036
:101378000336C250C30B0310C26EC282C2B2C7EF9B
:1013880009F0C9EF09F0C2EF09F0C450030B036E6E
:10139800C350016E03C002F01200026E01B002D009
:1013A800829201D0828202C083FF82848294958EC9
:1013B800828082928284829483BEE5EF09F0E7EF0F
:1013C80009F0DEEF09F08290959E1200156E010E6D
:1013D800036E060E046E840E056E94EC09F001ECA3
:1013E8000AF042EC09F01550F3EC06F013C010F0C7
:1013F80014C011F06BEC09F01200810E0E6E030E92
:1014080036EC0AF0800E0E6E020E36EC0AF0C10EB3
:101418000E6E010E36EC0AF0C00E0E6E000E36ECA3
:101428000AF01200001E1E1F1F1F0C000003071FDA
:101438001F1F0C00001C040E1F0400000007040EF0
:051448001F040000017B
:10144E00C280C19AC198C186C194C182C190C08A1E
:10145E00C098C096C094C082C090C08E12000F6E0D
:10146E00000E016E0E50D1EC09F0010E016E0F5000
:10147E00D1EC09F0120053EC0AF06EEC07F0BBEC65
:10148E0005F027EC0AF0120020061D0611061406C0
:10149E0017061A0623060E06000E816E93501E0BBB
:0614AE00936EF19E120096
:020000040020DA
:08000000FFFFFFFFFFFFFFFF00
:020000040030CA
:0E000000FF071F1FFF8285FF0FC00FE00F409C
:00000001FF
